{
  "_format": "hh-sol-artifact-1",
  "contractName": "BandPriceFeed",
  "sourceName": "contracts/BandPriceFeed.sol",
  "abi": [
    {
      "inputs": [
        {
          "internalType": "contract IStdReference",
          "name": "stdRefArg",
          "type": "address"
        },
        {
          "internalType": "string",
          "name": "baseAssetArg",
          "type": "string"
        },
        {
          "internalType": "uint80",
          "name": "cacheTwapInterval",
          "type": "uint80"
        }
      ],
      "stateMutability": "nonpayable",
      "type": "constructor"
    },
    {
      "inputs": [],
      "name": "QUOTE_ASSET",
      "outputs": [
        {
          "internalType": "string",
          "name": "",
          "type": "string"
        }
      ],
      "stateMutability": "view",
      "type": "function"
    },
    {
      "inputs": [],
      "name": "baseAsset",
      "outputs": [
        {
          "internalType": "string",
          "name": "",
          "type": "string"
        }
      ],
      "stateMutability": "view",
      "type": "function"
    },
    {
      "inputs": [
        {
          "internalType": "uint256",
          "name": "interval",
          "type": "uint256"
        }
      ],
      "name": "cacheTwap",
      "outputs": [
        {
          "internalType": "uint256",
          "name": "",
          "type": "uint256"
        }
      ],
      "stateMutability": "nonpayable",
      "type": "function"
    },
    {
      "inputs": [],
      "name": "currentObservationIndex",
      "outputs": [
        {
          "internalType": "uint8",
          "name": "",
          "type": "uint8"
        }
      ],
      "stateMutability": "view",
      "type": "function"
    },
    {
      "inputs": [],
      "name": "decimals",
      "outputs": [
        {
          "internalType": "uint8",
          "name": "",
          "type": "uint8"
        }
      ],
      "stateMutability": "pure",
      "type": "function"
    },
    {
      "inputs": [
        {
          "internalType": "uint256",
          "name": "interval",
          "type": "uint256"
        }
      ],
      "name": "getPrice",
      "outputs": [
        {
          "internalType": "uint256",
          "name": "",
          "type": "uint256"
        }
      ],
      "stateMutability": "view",
      "type": "function"
    },
    {
      "inputs": [
        {
          "internalType": "uint256",
          "name": "",
          "type": "uint256"
        }
      ],
      "name": "observations",
      "outputs": [
        {
          "internalType": "uint256",
          "name": "price",
          "type": "uint256"
        },
        {
          "internalType": "uint256",
          "name": "priceCumulative",
          "type": "uint256"
        },
        {
          "internalType": "uint256",
          "name": "timestamp",
          "type": "uint256"
        }
      ],
      "stateMutability": "view",
      "type": "function"
    },
    {
      "inputs": [],
      "name": "stdRef",
      "outputs": [
        {
          "internalType": "contract IStdReference",
          "name": "",
          "type": "address"
        }
      ],
      "stateMutability": "view",
      "type": "function"
    },
    {
      "inputs": [],
      "name": "update",
      "outputs": [],
      "stateMutability": "nonpayable",
      "type": "function"
    }
  ],
  "bytecode": "0x60806040523480156200001157600080fd5b5060405162001051380380620010518339810160408190526200003491620001ab565b6103028054600160a01b600160f01b031916600160a01b6001600160501b03841602179055620000796001600160a01b038416620000dd602090811b620002c717901c565b620000a15760405162461bcd60e51b815260040162000098906200029f565b60405180910390fd5b61030480546001600160a01b0319166001600160a01b0385161790558151620000d390610303906020850190620000e7565b50505050620002c0565b803b15155b919050565b828054600181600116156101000203166002900490600052602060002090601f0160209004810192826200011f57600085556200016a565b82601f106200013a57805160ff19168380011785556200016a565b828001600101855582156200016a579182015b828111156200016a5782518255916020019190600101906200014d565b50620001789291506200017c565b5090565b5b808211156200017857600081556001016200017d565b80516001600160501b0381168114620000e257600080fd5b600080600060608486031215620001c0578283fd5b83516001600160a01b0381168114620001d7578384fd5b602085810151919450906001600160401b0380821115620001f6578485fd5b818701915087601f8301126200020a578485fd5b8151818111156200021757fe5b604051601f8201601f19168101850183811182821017156200023557fe5b60405281815283820185018a10156200024c578687fd5b8692505b818310156200026f578383018501518184018601529184019162000250565b818311156200028057868583830101525b8096505050505050620002966040850162000193565b90509250925092565b6020808252600790820152664250465f414e4360c81b604082015260600190565b610d8180620002d06000396000f3fe608060405234801561001057600080fd5b50600436106100935760003560e01c8063a2e6204511610066578063a2e620451461010d578063aed3aff714610117578063cdf456e11461011f578063e757223014610134578063f06a1e131461014757610093565b80631d1a111a14610098578063252c09d7146100c1578063313ce567146100e35780635368945b146100f8575b600080fd5b6100ab6100a6366004610b29565b61014f565b6040516100b89190610cf1565b60405180910390f35b6100d46100cf366004610b29565b610185565b6040516100b893929190610cfa565b6100eb6101ad565b6040516100b89190610d10565b6101006101b2565b6040516100b89190610b8c565b6101156101c2565b005b6100eb6101e3565b6101276101ec565b6040516100b89190610ba0565b6100ab610142366004610b29565b61027b565b6101276102a8565b60008061015a6102cd565b90508261016957519050610180565b61017c83826000015183602001516103e7565b9150505b919050565b600181610100811061019657600080fd5b600302018054600182015460029092015490925083565b601290565b610304546001600160a01b031681565b60006101cc6102cd565b90506101e081600001518260200151610483565b50565b60005460ff1681565b610303805460408051602060026001851615610100026000190190941693909304601f810184900484028201840190925281815292918301828280156102735780601f1061024857610100808354040283529160200191610273565b820191906000526020600020905b81548152906001019060200180831161025657829003601f168201915b505050505081565b6000806102866102cd565b90508261029557519050610180565b61017c83826000015183602001516105d7565b604051806040016040528060038152602001621554d160ea1b81525081565b3b151590565b6102d5610ab3565b6103045460408051808201825260038152621554d160ea1b6020820152905163195556f360e21b81526000926001600160a01b0316916365555bcc916103219161030391600401610bb3565b60606040518083038186803b15801561033957600080fd5b505afa15801561034d573d6000803e3d6000fd5b505050506040513d601f19601f820116820180604052508101906103719190610ad4565b905060008160400151116103a05760405162461bcd60e51b815260040161039790610c70565b60405180910390fd5b60008160200151116103c45760405162461bcd60e51b815260040161039790610cb1565b80516103e25760405162461bcd60e51b815260040161039790610c91565b905090565b61030254600090600160a01b900469ffffffffffffffffffff16841461041957610412848484610633565b905061047c565b610302546001600160a01b031661042e61065a565b146104765761043d8383610483565b61044561065a565b61030280546001600160a01b0319166001600160a01b0392909216919091179055610471848484610633565b610301555b50610301545b9392505050565b60005460ff161580156104965750600354155b156104f057604051806060016040528083815260200160008152602001828152506001600061010081106104c657fe5b600302016000820151816000015560208201518160010155604082015181600201559050506105d3565b6000805460019060ff16610100811061050557fe5b6040805160608101825260039290920292909201805482526001810154602083015260020154918101829052915082116105515760405162461bcd60e51b815260040161039790610cd2565b6000805460ff198116600160ff92831681018316919091179283905560408481015181516060810183528881528651602080890151938a03918202909301928201929092529182018790529390921661010081106105ab57fe5b6003020160008201518160000155602082015181600101556040820151816002015590505050505b5050565b610302546000906001600160a01b03166105ef61065a565b148015610611575061030254600160a01b900469ffffffffffffffffffff1684145b1561062057506103015461047c565b61062b848484610633565b949350505050565b60008061064185858561065e565b9050801561064f5780610651565b835b95945050505050565b4290565b60008054819060019060ff16610100811061067557fe5b600302016040518060600160405290816000820154815260200160018201548152602001600282015481525050905060006106ae61065a565b905060006106bc82886107e8565b9050600061070d6107026106da6106d3868a6107e8565b8a9061084a565b6106fc6106f488604001518b6107e890919063ffffffff16565b88519061084a565b906108a3565b6020860151906108a3565b905060008061071b846108fd565b9150915060008260400151851161073f5782604001519450826020015190506107b9565b8482604001511161075d5781604001519450816020015190506107b9565b60008360400151836040015103905060008460400151870390506107b46107a9836107a38461079d8a602001518a602001516107e890919063ffffffff16565b9061084a565b90610a4c565b6020870151906108a3565b925050505b84860380156107d5576107d0816107a387856107e8565b6107d8565b60005b9c9b505050505050505050505050565b60008282111561083f576040805162461bcd60e51b815260206004820152601e60248201527f536166654d6174683a207375627472616374696f6e206f766572666c6f770000604482015290519081900360640190fd5b508082035b92915050565b60008261085957506000610844565b8282028284828161086657fe5b041461047c5760405162461bcd60e51b8152600401808060200182810382526021815260200180610d2b6021913960400191505060405180910390fd5b60008282018381101561047c576040805162461bcd60e51b815260206004820152601b60248201527f536166654d6174683a206164646974696f6e206f766572666c6f770000000000604482015290519081900360640190fd5b610905610ab3565b61090d610ab3565b6000805460ff169080610100815b8181101561098e578760018660ff16610100811061093557fe5b60030201600201541161097f5760018560ff16610100811061095357fe5b6003020160020154600014156109715784600101935083925061098e565b84935083600101925061098e565b6000199094019360010161091b565b818114156109ae5760405162461bcd60e51b815260040161039790610c50565b60018460ff1661010081106109bf57fe5b600302016040518060600160405290816000820154815260200160018201548152602001600282015481525050965060018360ff1661010081106109ff57fe5b6003020160405180606001604052908160008201548152602001600182015481526020016002820154815250509550866040015186604001511015610a42578695505b5050505050915091565b6000808211610aa2576040805162461bcd60e51b815260206004820152601a60248201527f536166654d6174683a206469766973696f6e206279207a65726f000000000000604482015290519081900360640190fd5b818381610aab57fe5b049392505050565b60405180606001604052806000815260200160008152602001600081525090565b600060608284031215610ae5578081fd5b6040516060810181811067ffffffffffffffff82111715610b0257fe5b80604052508251815260208301516020820152604083015160408201528091505092915050565b600060208284031215610b3a578081fd5b5035919050565b60008151808452815b81811015610b6657602081850181015186830182015201610b4a565b81811115610b775782602083870101525b50601f01601f19169290920160200192915050565b6001600160a01b0391909116815260200190565b60006020825261047c6020830184610b41565b60006040820160408352818554600180821660008114610bda5760018114610bf857610c31565b60028304607f16855260ff1983166060880152608087019350610c31565b60028304808652610c088a610d1e565b875b82811015610c275781548a82016060015290840190602001610c0a565b8901606001955050505b5050508381036020850152610c468186610b41565b9695505050505050565b602080825260069082015265086a8be9c8a960d31b604082015260600190565b6020808252600790820152662128232faa28ad60c91b604082015260600190565b60208082526006908201526504250465f49560d41b604082015260600190565b6020808252600790820152662128232faa212d60c91b604082015260600190565b60208082526005908201526410d517d25560da1b604082015260600190565b90815260200190565b9283526020830191909152604082015260600190565b60ff91909116815260200190565b6000908152602090209056fe536166654d6174683a206d756c7469706c69636174696f6e206f766572666c6f77a264697066735822122064dfa3a85684252181d50997305a42040018b1e53de19b94dc041ef859f7925264736f6c63430007060033",
  "linkReferences": {},
  "deployedLinkReferences": {}
}