{
  "_format": "hh-sol-artifact-1",
  "contractName": "BandPriceFeed",
  "sourceName": "contracts/BandPriceFeed.sol",
  "abi": [
    {
      "inputs": [
        {
          "internalType": "contract IStdReference",
          "name": "stdRefArg",
          "type": "address"
        },
        {
          "internalType": "string",
          "name": "baseAssetArg",
          "type": "string"
        },
        {
          "internalType": "uint80",
          "name": "cacheTwapInterval",
          "type": "uint80"
        }
      ],
      "stateMutability": "nonpayable",
      "type": "constructor"
    },
    {
      "anonymous": false,
      "inputs": [
        {
          "indexed": false,
          "internalType": "uint256",
          "name": "price",
          "type": "uint256"
        },
        {
          "indexed": false,
          "internalType": "uint256",
          "name": "timestamp",
          "type": "uint256"
        },
        {
          "indexed": false,
          "internalType": "uint8",
          "name": "indexAt",
          "type": "uint8"
        }
      ],
      "name": "PriceUpdated",
      "type": "event"
    },
    {
      "inputs": [],
      "name": "QUOTE_ASSET",
      "outputs": [
        {
          "internalType": "string",
          "name": "",
          "type": "string"
        }
      ],
      "stateMutability": "view",
      "type": "function"
    },
    {
      "inputs": [],
      "name": "baseAsset",
      "outputs": [
        {
          "internalType": "string",
          "name": "",
          "type": "string"
        }
      ],
      "stateMutability": "view",
      "type": "function"
    },
    {
      "inputs": [
        {
          "internalType": "uint256",
          "name": "interval",
          "type": "uint256"
        }
      ],
      "name": "cacheTwap",
      "outputs": [
        {
          "internalType": "uint256",
          "name": "",
          "type": "uint256"
        }
      ],
      "stateMutability": "nonpayable",
      "type": "function"
    },
    {
      "inputs": [],
      "name": "currentObservationIndex",
      "outputs": [
        {
          "internalType": "uint8",
          "name": "",
          "type": "uint8"
        }
      ],
      "stateMutability": "view",
      "type": "function"
    },
    {
      "inputs": [],
      "name": "decimals",
      "outputs": [
        {
          "internalType": "uint8",
          "name": "",
          "type": "uint8"
        }
      ],
      "stateMutability": "pure",
      "type": "function"
    },
    {
      "inputs": [
        {
          "internalType": "uint256",
          "name": "interval",
          "type": "uint256"
        }
      ],
      "name": "getPrice",
      "outputs": [
        {
          "internalType": "uint256",
          "name": "",
          "type": "uint256"
        }
      ],
      "stateMutability": "view",
      "type": "function"
    },
    {
      "inputs": [
        {
          "internalType": "uint256",
          "name": "",
          "type": "uint256"
        }
      ],
      "name": "observations",
      "outputs": [
        {
          "internalType": "uint256",
          "name": "price",
          "type": "uint256"
        },
        {
          "internalType": "uint256",
          "name": "priceCumulative",
          "type": "uint256"
        },
        {
          "internalType": "uint256",
          "name": "timestamp",
          "type": "uint256"
        }
      ],
      "stateMutability": "view",
      "type": "function"
    },
    {
      "inputs": [],
      "name": "stdRef",
      "outputs": [
        {
          "internalType": "contract IStdReference",
          "name": "",
          "type": "address"
        }
      ],
      "stateMutability": "view",
      "type": "function"
    },
    {
      "inputs": [],
      "name": "update",
      "outputs": [],
      "stateMutability": "nonpayable",
      "type": "function"
    }
  ],
  "bytecode": "0x60806040523480156200001157600080fd5b50604051620010b2380380620010b28339810160408190526200003491620001ab565b6103028054600160a01b600160f01b031916600160a01b6001600160501b03841602179055620000796001600160a01b038416620000dd602090811b620002c817901c565b620000a15760405162461bcd60e51b815260040162000098906200029f565b60405180910390fd5b61030480546001600160a01b0319166001600160a01b0385161790558151620000d390610303906020850190620000e7565b50505050620002c0565b803b15155b919050565b828054600181600116156101000203166002900490600052602060002090601f0160209004810192826200011f57600085556200016a565b82601f106200013a57805160ff19168380011785556200016a565b828001600101855582156200016a579182015b828111156200016a5782518255916020019190600101906200014d565b50620001789291506200017c565b5090565b5b808211156200017857600081556001016200017d565b80516001600160501b0381168114620000e257600080fd5b600080600060608486031215620001c0578283fd5b83516001600160a01b0381168114620001d7578384fd5b602085810151919450906001600160401b0380821115620001f6578485fd5b818701915087601f8301126200020a578485fd5b8151818111156200021757fe5b604051601f8201601f19168101850183811182821017156200023557fe5b60405281815283820185018a10156200024c578687fd5b8692505b818310156200026f578383018501518184018601529184019162000250565b818311156200028057868583830101525b8096505050505050620002966040850162000193565b90509250925092565b6020808252600790820152664250465f414e4360c81b604082015260600190565b610de280620002d06000396000f3fe608060405234801561001057600080fd5b50600436106100935760003560e01c8063a2e6204511610066578063a2e620451461010d578063aed3aff714610117578063cdf456e11461011f578063e757223014610134578063f06a1e131461014757610093565b80631d1a111a14610098578063252c09d7146100c1578063313ce567146100e35780635368945b146100f8575b600080fd5b6100ab6100a6366004610b52565b61014f565b6040516100b89190610d39565b60405180910390f35b6100d46100cf366004610b52565b610185565b6040516100b893929190610d5b565b6100eb6101ad565b6040516100b89190610d71565b6101006101b2565b6040516100b89190610bb5565b6101156101c2565b005b6100eb6101e3565b6101276101ed565b6040516100b89190610bc9565b6100ab610142366004610b52565b61027c565b6101276102a9565b60008061015a6102ce565b90508261016957519050610180565b61017c83826000015183602001516103e8565b9150505b919050565b600081610100811061019657600080fd5b600302018054600182015460029092015490925083565b601290565b610304546001600160a01b031681565b60006101cc6102ce565b90506101e08160000151826020015161048d565b50565b6103005460ff1681565b610303805460408051602060026001851615610100026000190190941693909304601f810184900484028201840190925281815292918301828280156102745780601f1061024957610100808354040283529160200191610274565b820191906000526020600020905b81548152906001019060200180831161025757829003601f168201915b505050505081565b6000806102876102ce565b90508261029657519050610180565b61017c838260000151836020015161063a565b604051806040016040528060038152602001621554d160ea1b81525081565b3b151590565b6102d6610adc565b6103045460408051808201825260038152621554d160ea1b6020820152905163195556f360e21b81526000926001600160a01b0316916365555bcc916103229161030391600401610bdc565b60606040518083038186803b15801561033a57600080fd5b505afa15801561034e573d6000803e3d6000fd5b505050506040513d601f19601f820116820180604052508101906103729190610afd565b905060008160400151116103a15760405162461bcd60e51b815260040161039890610c99565b60405180910390fd5b60008160200151116103c55760405162461bcd60e51b815260040161039890610cda565b80516103e35760405162461bcd60e51b815260040161039890610cba565b905090565b61030254600090600160a01b900469ffffffffffffffffffff16841461041a57610413848484610675565b9050610486565b610302546001600160a01b031661042f61080c565b141561043f575061030154610486565b610449838361048d565b61045161080c565b61030280546001600160a01b0319166001600160a01b039290921691909117905561047d848484610675565b61030181905590505b9392505050565b6103005460ff161580156104a15750600254155b1561050d57604080516060810182528381526000602082018190529082018390528381556001819055600283905590517f5f4a9a1b73bee700ca1fb203bb004bcc0a7eca48af3f147b24dcf5bf4bf3c00b916105009185918591610d42565b60405180910390a1610636565b61030054600090819060ff16610100811061052457fe5b604080516060810182526003929092029290920180548252600181015460208301526002015491810182905291508210156105715760405162461bcd60e51b815260040161039890610cfb565b610300805460ff198116600160ff928316018216179182905560408381015181516060810183528781528551602080880151938903918202909301928201929092529182018690529290916000911661010081106105cb57fe5b825160039190910291909101908155602082015160018201556040918201516002909101556103005490517f5f4a9a1b73bee700ca1fb203bb004bcc0a7eca48af3f147b24dcf5bf4bf3c00b9161062b918791879160ff90911690610d42565b60405180910390a150505b5050565b610302546000906001600160a01b031661065261080c565b1415610662575061030154610486565b61066d848484610675565b949350505050565b610300546000908190819060ff16610100811061068e57fe5b60030201604051806060016040529081600082015481526020016001820154815260200160028201548152505090508060000151600014156106e25760405162461bcd60e51b815260040161039890610d1a565b60006106ec61080c565b905060006106fa8288610810565b905060008061070883610872565b9092509050600061075c610751610729610722888c610810565b8c906109c2565b61074b6107438a604001518d61081090919063ffffffff16565b8a51906109c2565b90610a1b565b602088015190610a1b565b905060008360400151851161077e5783604001519450836020015190506107ed565b8483604001511161079c5782604001519450826020015190506107ed565b60008460400151846040015103905060008560400151870390506107e8610751836107e2846107dc8b602001518b6020015161081090919063ffffffff16565b906109c2565b90610a75565b925050505b6107fd8587036107e28484610810565b9b9a5050505050505050505050565b4290565b600082821115610867576040805162461bcd60e51b815260206004820152601e60248201527f536166654d6174683a207375627472616374696f6e206f766572666c6f770000604482015290519081900360640190fd5b508082035b92915050565b61087a610adc565b610882610adc565b6103005460ff16600080610100815b81811015610904578760008660ff1661010081106108ab57fe5b6003020160020154116108f55760008560ff1661010081106108c957fe5b6003020160020154600014156108e757846001019350839250610904565b849350836001019250610904565b60001990940193600101610891565b818114156109245760405162461bcd60e51b815260040161039890610c79565b60008460ff16610100811061093557fe5b600302016040518060600160405290816000820154815260200160018201548152602001600282015481525050965060008360ff16610100811061097557fe5b60030201604051806060016040529081600082015481526020016001820154815260200160028201548152505095508660400151866040015110156109b8578695505b5050505050915091565b6000826109d15750600061086c565b828202828482816109de57fe5b04146104865760405162461bcd60e51b8152600401808060200182810382526021815260200180610d8c6021913960400191505060405180910390fd5b600082820183811015610486576040805162461bcd60e51b815260206004820152601b60248201527f536166654d6174683a206164646974696f6e206f766572666c6f770000000000604482015290519081900360640190fd5b6000808211610acb576040805162461bcd60e51b815260206004820152601a60248201527f536166654d6174683a206469766973696f6e206279207a65726f000000000000604482015290519081900360640190fd5b818381610ad457fe5b049392505050565b60405180606001604052806000815260200160008152602001600081525090565b600060608284031215610b0e578081fd5b6040516060810181811067ffffffffffffffff82111715610b2b57fe5b80604052508251815260208301516020820152604083015160408201528091505092915050565b600060208284031215610b63578081fd5b5035919050565b60008151808452815b81811015610b8f57602081850181015186830182015201610b73565b81811115610ba05782602083870101525b50601f01601f19169290920160200192915050565b6001600160a01b0391909116815260200190565b6000602082526104866020830184610b6a565b60006040820160408352818554600180821660008114610c035760018114610c2157610c5a565b60028304607f16855260ff1983166060880152608087019350610c5a565b60028304808652610c318a610d7f565b875b82811015610c505781548a82016060015290840190602001610c33565b8901606001955050505b5050508381036020850152610c6f8186610b6a565b9695505050505050565b602080825260069082015265086a8be9c8a960d31b604082015260600190565b6020808252600790820152662128232faa28ad60c91b604082015260600190565b60208082526006908201526504250465f49560d41b604082015260600190565b6020808252600790820152662128232faa212d60c91b604082015260600190565b60208082526005908201526410d517d25560da1b604082015260600190565b60208082526005908201526410d517d39160da1b604082015260600190565b90815260200190565b928352602083019190915260ff16604082015260600190565b9283526020830191909152604082015260600190565b60ff91909116815260200190565b6000908152602090209056fe536166654d6174683a206d756c7469706c69636174696f6e206f766572666c6f77a2646970667358221220efe5a99f67f0638e4f5978f3d9253913a108623974dd30e8541181ca03c24e9564736f6c63430007060033",
  "linkReferences": {},
  "deployedLinkReferences": {}
}