{
  "_format": "hh-sol-artifact-1",
  "contractName": "UniswapV3PriceFeed",
  "sourceName": "contracts/UniswapV3PriceFeed.sol",
  "abi": [
    {
      "inputs": [
        {
          "internalType": "address",
          "name": "poolArg",
          "type": "address"
        }
      ],
      "stateMutability": "nonpayable",
      "type": "constructor"
    },
    {
      "inputs": [],
      "name": "decimals",
      "outputs": [
        {
          "internalType": "uint8",
          "name": "",
          "type": "uint8"
        }
      ],
      "stateMutability": "pure",
      "type": "function"
    },
    {
      "inputs": [],
      "name": "getPrice",
      "outputs": [
        {
          "internalType": "uint256",
          "name": "",
          "type": "uint256"
        }
      ],
      "stateMutability": "view",
      "type": "function"
    },
    {
      "inputs": [],
      "name": "pool",
      "outputs": [
        {
          "internalType": "address",
          "name": "",
          "type": "address"
        }
      ],
      "stateMutability": "view",
      "type": "function"
    }
  ],
  "bytecode": "0x608060405234801561001057600080fd5b50604051610abf380380610abf83398101604081905261002f9161009b565b61004b816001600160a01b031661009560201b6100c91760201c565b6100705760405162461bcd60e51b8152600401610067906100c9565b60405180910390fd5b600080546001600160a01b0319166001600160a01b03929092169190911790556100eb565b3b151590565b6000602082840312156100ac578081fd5b81516001600160a01b03811681146100c2578182fd5b9392505050565b6020808252600890820152674550465f45414e4360c01b604082015260600190565b6109c5806100fa6000396000f3fe608060405234801561001057600080fd5b50600436106100415760003560e01c806316f0115b14610046578063313ce5671461006457806398d5fdca14610079575b600080fd5b61004e61008e565b60405161005b91906108d8565b60405180910390f35b61006c61009d565b60405161005b919061093f565b6100816100a2565b60405161005b9190610936565b6000546001600160a01b031681565b601290565b6000806100b86100b36107086100d3565b6102bd565b90506100c3816102dd565b91505090565b803b15155b919050565b6000600a8263ffffffff16101561017b5760008060009054906101000a90046001600160a01b03166001600160a01b0316633850c7bd6040518163ffffffff1660e01b815260040160e06040518083038186803b15801561013357600080fd5b505afa158015610147573d6000803e3d6000fd5b505050506040513d601f19601f8201168201806040525081019061016b919061083c565b509496506100ce95505050505050565b60408051600280825260608201835260009260208301908036833701905050905082816000815181106101aa57fe5b602002602001019063ffffffff16908163ffffffff16815250506000816001815181106101d357fe5b63ffffffff909216602092830291909101909101526000805460405163883bdbfd60e01b81526001600160a01b039091169063883bdbfd906102199085906004016108ec565b60006040518083038186803b15801561023157600080fd5b505afa158015610245573d6000803e3d6000fd5b505050506040513d6000823e601f3d908101601f1916820160405261026d9190810190610774565b5090506102b58463ffffffff168260008151811061028757fe5b60200260200101518360018151811061029c57fe5b60200260200101510360060b816102af57fe5b056102f6565b949350505050565b60006102d76001600160a01b03831680600160601b610628565b92915050565b60006102d782670de0b6b3a7640000600160601b610628565b60008060008360020b1261030d578260020b610315565b8260020b6000035b9050620d89e8811115610353576040805162461bcd60e51b81526020600482015260016024820152601560fa1b604482015290519081900360640190fd5b60006001821661036757600160801b610379565b6ffffcb933bd6fad37aa2d162d1a5940015b70ffffffffffffffffffffffffffffffffff16905060028216156103ad576ffff97272373d413259a46990580e213a0260801c5b60048216156103cc576ffff2e50f5f656932ef12357cf3c7fdcc0260801c5b60088216156103eb576fffe5caca7e10e4e61c3624eaa0941cd00260801c5b601082161561040a576fffcb9843d60f6159c9db58835c9266440260801c5b6020821615610429576fff973b41fa98c081472e6896dfb254c00260801c5b6040821615610448576fff2ea16466c96a3843ec78b326b528610260801c5b6080821615610467576ffe5dee046a99a2a811c461f1969c30530260801c5b610100821615610487576ffcbe86c7900a88aedcffc83b479aa3a40260801c5b6102008216156104a7576ff987a7253ac413176f2b074cf7815e540260801c5b6104008216156104c7576ff3392b0822b70005940c7a398e4b70f30260801c5b6108008216156104e7576fe7159475a2c29b7443b29c7fa6e889d90260801c5b611000821615610507576fd097f3bdfd2022b8845ad8f792aa58250260801c5b612000821615610527576fa9f746462d870fdf8a65dc1f90e061e50260801c5b614000821615610547576f70d869a156d2a1b890bb3df62baf32f70260801c5b618000821615610567576f31be135f97d08fd981231505542fcfa60260801c5b62010000821615610588576f09aa508b5b7a84e1c677de54f3e99bc90260801c5b620200008216156105a8576e5d6af8dedb81196699c329225ee6040260801c5b620400008216156105c7576d2216e584f5fa1ea926041bedfe980260801c5b620800008216156105e4576b048a170391f7dc42444e8fa20260801c5b60008460020b13156105ff5780600019816105fb57fe5b0490505b640100000000810615610613576001610616565b60005b60ff16602082901c0192505050919050565b600080806000198587098686029250828110908390030390508061065e576000841161065357600080fd5b5082900490506106d1565b80841161066a57600080fd5b6000848688096000868103871696879004966002600389028118808a02820302808a02820302808a02820302808a02820302808a02820302808a02909103029181900381900460010186841190950394909402919094039290920491909117919091029150505b9392505050565b600082601f8301126106e8578081fd5b815160206106fd6106f883610971565b61094d565b8281528181019085830183850287018401881015610719578586fd5b855b8581101561073e5761072c8261074b565b8452928401929084019060010161071b565b5090979650505050505050565b80516001600160a01b03811681146100ce57600080fd5b805161ffff811681146100ce57600080fd5b60008060408385031215610786578182fd5b825167ffffffffffffffff8082111561079d578384fd5b818501915085601f8301126107b0578384fd5b815160206107c06106f883610971565b82815281810190858301838502870184018b10156107dc578889fd5b8896505b8487101561080c5780518060060b81146107f857898afd5b8352600196909601959183019183016107e0565b5091880151919650909350505080821115610825578283fd5b50610832858286016106d8565b9150509250929050565b600080600080600080600060e0888a031215610856578283fd5b61085f8861074b565b965060208801518060020b8114610874578384fd5b955061088260408901610762565b945061089060608901610762565b935061089e60808901610762565b925060a088015160ff811681146108b3578283fd5b60c089015190925080151581146108c8578182fd5b8091505092959891949750929550565b6001600160a01b0391909116815260200190565b6020808252825182820181905260009190848201906040850190845b8181101561092a57835163ffffffff1683529284019291840191600101610908565b50909695505050505050565b90815260200190565b60ff91909116815260200190565b60405181810167ffffffffffffffff8111828210171561096957fe5b604052919050565b600067ffffffffffffffff82111561098557fe5b506020908102019056fea26469706673582212203b315ce553d792912f8473f3fba3f251819c09c8f334c978e36ebe8a3b01985264736f6c63430007060033",
  "linkReferences": {},
  "deployedLinkReferences": {}
}