{
  "_format": "hh-sol-artifact-1",
  "contractName": "ChainlinkPriceFeedV2",
  "sourceName": "contracts/ChainlinkPriceFeedV2.sol",
  "abi": [
    {
      "inputs": [
        {
          "internalType": "contract AggregatorV3Interface",
          "name": "aggregator",
          "type": "address"
        },
        {
          "internalType": "uint80",
          "name": "cacheTwapInterval",
          "type": "uint80"
        }
      ],
      "stateMutability": "nonpayable",
      "type": "constructor"
    },
    {
      "inputs": [
        {
          "internalType": "uint256",
          "name": "interval",
          "type": "uint256"
        }
      ],
      "name": "cacheTwap",
      "outputs": [
        {
          "internalType": "uint256",
          "name": "",
          "type": "uint256"
        }
      ],
      "stateMutability": "nonpayable",
      "type": "function"
    },
    {
      "inputs": [],
      "name": "currentObservationIndex",
      "outputs": [
        {
          "internalType": "uint8",
          "name": "",
          "type": "uint8"
        }
      ],
      "stateMutability": "view",
      "type": "function"
    },
    {
      "inputs": [],
      "name": "decimals",
      "outputs": [
        {
          "internalType": "uint8",
          "name": "",
          "type": "uint8"
        }
      ],
      "stateMutability": "view",
      "type": "function"
    },
    {
      "inputs": [],
      "name": "getAggregator",
      "outputs": [
        {
          "internalType": "address",
          "name": "",
          "type": "address"
        }
      ],
      "stateMutability": "view",
      "type": "function"
    },
    {
      "inputs": [
        {
          "internalType": "uint256",
          "name": "interval",
          "type": "uint256"
        }
      ],
      "name": "getPrice",
      "outputs": [
        {
          "internalType": "uint256",
          "name": "",
          "type": "uint256"
        }
      ],
      "stateMutability": "view",
      "type": "function"
    },
    {
      "inputs": [
        {
          "internalType": "uint80",
          "name": "roundId",
          "type": "uint80"
        }
      ],
      "name": "getRoundData",
      "outputs": [
        {
          "internalType": "uint256",
          "name": "",
          "type": "uint256"
        },
        {
          "internalType": "uint256",
          "name": "",
          "type": "uint256"
        }
      ],
      "stateMutability": "view",
      "type": "function"
    },
    {
      "inputs": [
        {
          "internalType": "uint256",
          "name": "",
          "type": "uint256"
        }
      ],
      "name": "observations",
      "outputs": [
        {
          "internalType": "uint256",
          "name": "price",
          "type": "uint256"
        },
        {
          "internalType": "uint256",
          "name": "priceCumulative",
          "type": "uint256"
        },
        {
          "internalType": "uint256",
          "name": "timestamp",
          "type": "uint256"
        }
      ],
      "stateMutability": "view",
      "type": "function"
    },
    {
      "inputs": [],
      "name": "update",
      "outputs": [],
      "stateMutability": "nonpayable",
      "type": "function"
    }
  ],
  "bytecode": "0x60a060405234801561001057600080fd5b50604051610fb1380380610fb18339818101604052604081101561003357600080fd5b5080516020918201516103028054600160a01b600160f01b031916600160a01b6001600160501b03841602179055909161007f906001600160a01b038416906100d0811b61046f17901c565b6100ba576040805162461bcd60e51b81526020600482015260076024820152664350465f414e4360c81b604482015290519081900360640190fd5b5060601b6001600160601b0319166080526100d6565b3b151590565b60805160601c610ea561010c6000398061022252806102ac52806102d6528061048052806107f052806108b65250610ea56000f3fe608060405234801561001057600080fd5b50600436106100885760003560e01c80639a6fc8f51161005b5780639a6fc8f514610139578063a2e6204514610178578063aed3aff714610182578063e75722301461018a57610088565b80631d1a111a1461008d578063252c09d7146100bc578063313ce567146100f75780633ad59dbc14610115575b600080fd5b6100aa600480360360208110156100a357600080fd5b50356101a7565b60408051918252519081900360200190f35b6100d9600480360360208110156100d257600080fd5b50356101f6565b60408051938452602084019290925282820152519081900360600190f35b6100ff61021e565b6040805160ff9092168252519081900360200190f35b61011d6102aa565b604080516001600160a01b039092168252519081900360200190f35b61015f6004803603602081101561014f57600080fd5b50356001600160501b03166102ce565b6040805192835260208301919091528051918290030190f35b610180610404565b005b6100ff610422565b6100aa600480360360208110156101a057600080fd5b503561042b565b6000806000806101b5610475565b92509250925084600014806101d157506001600160501b038316155b156101e0575091506101f19050565b6101eb85838361054c565b93505050505b919050565b600181610100811061020757600080fd5b600302018054600182015460029092015490925083565b60007f00000000000000000000000000000000000000000000000000000000000000006001600160a01b031663313ce5676040518163ffffffff1660e01b815260040160206040518083038186803b15801561027957600080fd5b505afa15801561028d573d6000803e3d6000fd5b505050506040513d60208110156102a357600080fd5b5051905090565b7f000000000000000000000000000000000000000000000000000000000000000090565b6000806000807f00000000000000000000000000000000000000000000000000000000000000006001600160a01b0316639a6fc8f5866040518263ffffffff1660e01b815260040180826001600160501b0316815260200191505060a06040518083038186803b15801561034157600080fd5b505afa158015610355573d6000803e3d6000fd5b505050506040513d60a081101561036b57600080fd5b5060208101516060909101519092509050600082136103ba576040805162461bcd60e51b815260206004820152600660248201526504350465f49560d41b604482015290519081900360640190fd5b600081116103fa576040805162461bcd60e51b81526020600482015260086024820152674350465f52494e4360c01b604482015290519081900360640190fd5b9092509050915091565b60008061040f610475565b925092505061041e82826105e5565b5050565b60005460ff1681565b600080600080610439610475565b925092509250846000148061045557506001600160501b038316155b15610464575091506101f19050565b6101eb858383610741565b3b151590565b6000806000806000807f00000000000000000000000000000000000000000000000000000000000000006001600160a01b031663feaf968c6040518163ffffffff1660e01b815260040160a06040518083038186803b1580156104d757600080fd5b505afa1580156104eb573d6000803e3d6000fd5b505050506040513d60a081101561050157600080fd5b50805160208201516060909201519196509350859250905060008212156105405761052b8361079a565b610537600184036107e5565b90965090935090505b91945090915050909192565b61030254600090600160a01b90046001600160501b0316841461057b5761057484848461096e565b90506105de565b610302546001600160a01b0316610590610995565b146105d85761059f83836105e5565b6105a7610995565b61030280546001600160a01b0319166001600160a01b03929092169190911790556105d384848461096e565b610301555b50610301545b9392505050565b60005460ff161580156105f85750600354155b15610652576040518060600160405280838152602001600081526020018281525060016000610100811061062857fe5b6003020160008201518160000155602082015181600101556040820151816002015590505061041e565b6000805460019060ff16610100811061066757fe5b6040805160608101825260039290920292909201805482526001810154602083015260020154918101829052915082116106bc5760405162461bcd60e51b81526004016106b390610e2f565b60405180910390fd5b6000805460ff198116600160ff92831681018316919091179283905560408481015181516060810183528881528651602080890151938a039182029093019282019290925291820187905293909216610100811061071657fe5b6003020160008201518160000155602082015181600101556040820151816002015590505050505050565b610302546000906001600160a01b0316610759610995565b148015610778575061030254600160a01b90046001600160501b031684145b156107875750610301546105de565b61079284848461096e565b949350505050565b6000816001600160501b0316116107e2576040805162461bcd60e51b8152602060048201526007602482015266086a08cbe9c8a960cb1b604482015290519081900360640190fd5b50565b6000806000806000807f00000000000000000000000000000000000000000000000000000000000000006001600160a01b0316639a6fc8f5886040518263ffffffff1660e01b815260040180826001600160501b0316815260200191505060a06040518083038186803b15801561085b57600080fd5b505afa15801561086f573d6000803e3d6000fd5b505050506040513d60a081101561088557600080fd5b508051602082015160609092015190945090925090505b6000821215610961576108ae8361079a565b6001830392507f00000000000000000000000000000000000000000000000000000000000000006001600160a01b0316639a6fc8f5846040518263ffffffff1660e01b815260040180826001600160501b0316815260200191505060a06040518083038186803b15801561092157600080fd5b505afa158015610935573d6000803e3d6000fd5b505050506040513d60a081101561094b57600080fd5b506020810151606090910151909250905061089c565b9196909550909350915050565b60008061097c858585610999565b9050801561098a578061098c565b835b95945050505050565b4290565b60008054819060019060ff1661010081106109b057fe5b600302016040518060600160405290816000820154815260200160018201548152602001600282015481525050905060006109e9610995565b905060006109f78288610b23565b90506000610a48610a3d610a15610a0e868a610b23565b8a90610b85565b610a37610a2f88604001518b610b2390919063ffffffff16565b885190610b85565b90610bde565b602086015190610bde565b9050600080610a5684610c38565b91509150600082604001518511610a7a578260400151945082602001519050610af4565b84826040015111610a98578160400151945081602001519050610af4565b6000836040015183604001510390506000846040015187039050610aef610ae483610ade84610ad88a602001518a60200151610b2390919063ffffffff16565b90610b85565b90610d87565b602087015190610bde565b925050505b8486038015610b1057610b0b81610ade8785610b23565b610b13565b60005b9c9b505050505050505050505050565b600082821115610b7a576040805162461bcd60e51b815260206004820152601e60248201527f536166654d6174683a207375627472616374696f6e206f766572666c6f770000604482015290519081900360640190fd5b508082035b92915050565b600082610b9457506000610b7f565b82820282848281610ba157fe5b04146105de5760405162461bcd60e51b8152600401808060200182810382526021815260200180610e4f6021913960400191505060405180910390fd5b6000828201838110156105de576040805162461bcd60e51b815260206004820152601b60248201527f536166654d6174683a206164646974696f6e206f766572666c6f770000000000604482015290519081900360640190fd5b610c40610dee565b610c48610dee565b6000805460ff169080610100815b81811015610cc9578760018660ff166101008110610c7057fe5b600302016002015411610cba5760018560ff166101008110610c8e57fe5b600302016002015460001415610cac57846001019350839250610cc9565b849350836001019250610cc9565b60001990940193600101610c56565b81811415610ce95760405162461bcd60e51b81526004016106b390610e0f565b60018460ff166101008110610cfa57fe5b600302016040518060600160405290816000820154815260200160018201548152602001600282015481525050965060018360ff166101008110610d3a57fe5b6003020160405180606001604052908160008201548152602001600182015481526020016002820154815250509550866040015186604001511015610d7d578695505b5050505050915091565b6000808211610ddd576040805162461bcd60e51b815260206004820152601a60248201527f536166654d6174683a206469766973696f6e206279207a65726f000000000000604482015290519081900360640190fd5b818381610de657fe5b049392505050565b60405180606001604052806000815260200160008152602001600081525090565b602080825260069082015265086a8be9c8a960d31b604082015260600190565b60208082526005908201526410d517d25560da1b60408201526060019056fe536166654d6174683a206d756c7469706c69636174696f6e206f766572666c6f77a264697066735822122017dbda4cfe65fc0e85ce2a5b20e95651e956cbc78909f26f48b07093d55e5ae464736f6c63430007060033",
  "linkReferences": {},
  "deployedLinkReferences": {}
}