{
  "_format": "hh-sol-artifact-1",
  "contractName": "ChainlinkPriceFeed",
  "sourceName": "contracts/ChainlinkPriceFeed.sol",
  "abi": [
    {
      "inputs": [
        {
          "internalType": "contract AggregatorV3Interface",
          "name": "aggregator",
          "type": "address"
        },
        {
          "internalType": "uint80",
          "name": "cacheTwapInterval",
          "type": "uint80"
        }
      ],
      "stateMutability": "nonpayable",
      "type": "constructor"
    },
    {
      "anonymous": false,
      "inputs": [
        {
          "indexed": false,
          "internalType": "uint256",
          "name": "price",
          "type": "uint256"
        },
        {
          "indexed": false,
          "internalType": "uint256",
          "name": "timestamp",
          "type": "uint256"
        },
        {
          "indexed": false,
          "internalType": "uint8",
          "name": "indexAt",
          "type": "uint8"
        }
      ],
      "name": "PriceUpdated",
      "type": "event"
    },
    {
      "inputs": [
        {
          "internalType": "uint256",
          "name": "interval",
          "type": "uint256"
        }
      ],
      "name": "cacheTwap",
      "outputs": [
        {
          "internalType": "uint256",
          "name": "",
          "type": "uint256"
        }
      ],
      "stateMutability": "nonpayable",
      "type": "function"
    },
    {
      "inputs": [],
      "name": "currentObservationIndex",
      "outputs": [
        {
          "internalType": "uint8",
          "name": "",
          "type": "uint8"
        }
      ],
      "stateMutability": "view",
      "type": "function"
    },
    {
      "inputs": [],
      "name": "decimals",
      "outputs": [
        {
          "internalType": "uint8",
          "name": "",
          "type": "uint8"
        }
      ],
      "stateMutability": "view",
      "type": "function"
    },
    {
      "inputs": [
        {
          "internalType": "uint256",
          "name": "interval",
          "type": "uint256"
        }
      ],
      "name": "getPrice",
      "outputs": [
        {
          "internalType": "uint256",
          "name": "",
          "type": "uint256"
        }
      ],
      "stateMutability": "view",
      "type": "function"
    },
    {
      "inputs": [
        {
          "internalType": "uint256",
          "name": "",
          "type": "uint256"
        }
      ],
      "name": "observations",
      "outputs": [
        {
          "internalType": "uint256",
          "name": "price",
          "type": "uint256"
        },
        {
          "internalType": "uint256",
          "name": "priceCumulative",
          "type": "uint256"
        },
        {
          "internalType": "uint256",
          "name": "timestamp",
          "type": "uint256"
        }
      ],
      "stateMutability": "view",
      "type": "function"
    },
    {
      "inputs": [],
      "name": "update",
      "outputs": [],
      "stateMutability": "nonpayable",
      "type": "function"
    }
  ],
  "bytecode": "0x60a060405234801561001057600080fd5b50604051610dde380380610dde8339818101604052604081101561003357600080fd5b50805160209182015161030380546001600160501b0319166001600160501b0383161790559091610076906001600160a01b038416906100c7811b61028d17901c565b6100b1576040805162461bcd60e51b81526020600482015260076024820152664350465f414e4360c81b604482015290519081900360640190fd5b5060601b6001600160601b0319166080526100cd565b3b151590565b60805160601c610ce56100f960003980610199528061029e528061061152806106d75250610ce56000f3fe608060405234801561001057600080fd5b50600436106100625760003560e01c80631d1a111a14610067578063252c09d714610096578063313ce567146100d1578063a2e62045146100ef578063aed3aff7146100f9578063e757223014610101575b600080fd5b6100846004803603602081101561007d57600080fd5b503561011e565b60408051918252519081900360200190f35b6100b3600480360360208110156100ac57600080fd5b503561016d565b60408051938452602084019290925282820152519081900360600190f35b6100d9610195565b6040805160ff9092168252519081900360200190f35b6100f7610221565b005b6100d961023f565b6100846004803603602081101561011757600080fd5b5035610249565b60008060008061012c610293565b925092509250846000148061014857506001600160501b038316155b15610157575091506101689050565b61016285838361036a565b93505050505b919050565b600081610100811061017e57600080fd5b600302018054600182015460029092015490925083565b60007f00000000000000000000000000000000000000000000000000000000000000006001600160a01b031663313ce5676040518163ffffffff1660e01b815260040160206040518083038186803b1580156101f057600080fd5b505afa158015610204573d6000803e3d6000fd5b505050506040513d602081101561021a57600080fd5b5051905090565b60008061022c610293565b925092505061023b82826103d5565b5050565b6103005460ff1681565b600080600080610257610293565b925092509250846000148061027357506001600160501b038316155b15610282575091506101689050565b61016285838361058a565b3b151590565b6000806000806000807f00000000000000000000000000000000000000000000000000000000000000006001600160a01b031663feaf968c6040518163ffffffff1660e01b815260040160a06040518083038186803b1580156102f557600080fd5b505afa158015610309573d6000803e3d6000fd5b505050506040513d60a081101561031f57600080fd5b508051602082015160609092015191965093508592509050600082121561035e57610349836105bb565b61035560018403610606565b90965090935090505b91945090915050909192565b610303546000906001600160501b031684146103925761038b84848461078f565b90506103ce565b6103025461039e610926565b14156103ae5750610301546103ce565b6103b6610926565b610302556103c584848461078f565b61030181905590505b9392505050565b6103005460ff161580156103e95750600254155b1561045557604080516060810182528381526000602082018190529082018390528381556001819055600283905590517f5f4a9a1b73bee700ca1fb203bb004bcc0a7eca48af3f147b24dcf5bf4bf3c00b916104489185918591610c75565b60405180910390a161023b565b61030054600090819060ff16610100811061046c57fe5b604080516060810182526003929092029290920180548252600181015460208301526002015491810182905291508210156104c25760405162461bcd60e51b81526004016104b990610c37565b60405180910390fd5b610300805460ff198116600160ff9283160182161791829055604083810151815160608101835287815285516020808801519389039182029093019282019290925291820186905292909160009116610100811061051c57fe5b825160039190910291909101908155602082015160018201556040918201516002909101556103005490517f5f4a9a1b73bee700ca1fb203bb004bcc0a7eca48af3f147b24dcf5bf4bf3c00b9161057c918791879160ff90911690610c75565b60405180910390a150505050565b600061030254610598610926565b14156105a85750610301546103ce565b6105b384848461078f565b949350505050565b6000816001600160501b031611610603576040805162461bcd60e51b8152602060048201526007602482015266086a08cbe9c8a960cb1b604482015290519081900360640190fd5b50565b6000806000806000807f00000000000000000000000000000000000000000000000000000000000000006001600160a01b0316639a6fc8f5886040518263ffffffff1660e01b815260040180826001600160501b0316815260200191505060a06040518083038186803b15801561067c57600080fd5b505afa158015610690573d6000803e3d6000fd5b505050506040513d60a08110156106a657600080fd5b508051602082015160609092015190945090925090505b6000821215610782576106cf836105bb565b6001830392507f00000000000000000000000000000000000000000000000000000000000000006001600160a01b0316639a6fc8f5846040518263ffffffff1660e01b815260040180826001600160501b0316815260200191505060a06040518083038186803b15801561074257600080fd5b505afa158015610756573d6000803e3d6000fd5b505050506040513d60a081101561076c57600080fd5b50602081015160609091015190925090506106bd565b9196909550909350915050565b610300546000908190819060ff1661010081106107a857fe5b60030201604051806060016040529081600082015481526020016001820154815260200160028201548152505090508060000151600014156107fc5760405162461bcd60e51b81526004016104b990610c56565b6000610806610926565b90506000610814828861092a565b90506000806108228361098c565b9092509050600061087661086b61084361083c888c61092a565b8c90610adc565b61086561085d8a604001518d61092a90919063ffffffff16565b8a5190610adc565b90610b35565b602088015190610b35565b9050600083604001518511610898578360400151945083602001519050610907565b848360400151116108b6578260400151945082602001519050610907565b600084604001518460400151039050600085604001518703905061090261086b836108fc846108f68b602001518b6020015161092a90919063ffffffff16565b90610adc565b90610b8f565b925050505b6109178587036108fc848461092a565b9b9a5050505050505050505050565b4290565b600082821115610981576040805162461bcd60e51b815260206004820152601e60248201527f536166654d6174683a207375627472616374696f6e206f766572666c6f770000604482015290519081900360640190fd5b508082035b92915050565b610994610bf6565b61099c610bf6565b6103005460ff16600080610100815b81811015610a1e578760008660ff1661010081106109c557fe5b600302016002015411610a0f5760008560ff1661010081106109e357fe5b600302016002015460001415610a0157846001019350839250610a1e565b849350836001019250610a1e565b600019909401936001016109ab565b81811415610a3e5760405162461bcd60e51b81526004016104b990610c17565b60008460ff166101008110610a4f57fe5b600302016040518060600160405290816000820154815260200160018201548152602001600282015481525050965060008360ff166101008110610a8f57fe5b6003020160405180606001604052908160008201548152602001600182015481526020016002820154815250509550866040015186604001511015610ad2578695505b5050505050915091565b600082610aeb57506000610986565b82820282848281610af857fe5b04146103ce5760405162461bcd60e51b8152600401808060200182810382526021815260200180610c8f6021913960400191505060405180910390fd5b6000828201838110156103ce576040805162461bcd60e51b815260206004820152601b60248201527f536166654d6174683a206164646974696f6e206f766572666c6f770000000000604482015290519081900360640190fd5b6000808211610be5576040805162461bcd60e51b815260206004820152601a60248201527f536166654d6174683a206469766973696f6e206279207a65726f000000000000604482015290519081900360640190fd5b818381610bee57fe5b049392505050565b60405180606001604052806000815260200160008152602001600081525090565b602080825260069082015265086a8be9c8a960d31b604082015260600190565b60208082526005908201526410d517d25560da1b604082015260600190565b60208082526005908201526410d517d39160da1b604082015260600190565b928352602083019190915260ff1660408201526060019056fe536166654d6174683a206d756c7469706c69636174696f6e206f766572666c6f77a26469706673582212203b43eac202216a976f8da681c015660f97f9aa09b4ad02f415f08ebee435c7ed64736f6c63430007060033",
  "linkReferences": {},
  "deployedLinkReferences": {}
}