{
  "_format": "hh-sol-artifact-1",
  "contractName": "ChainlinkPriceFeed",
  "sourceName": "contracts/ChainlinkPriceFeed.sol",
  "abi": [
    {
      "inputs": [
        {
          "internalType": "contract AggregatorV3Interface",
          "name": "aggregator",
          "type": "address"
        },
        {
          "internalType": "uint80",
          "name": "cacheTwapInterval",
          "type": "uint80"
        }
      ],
      "stateMutability": "nonpayable",
      "type": "constructor"
    },
    {
      "anonymous": false,
      "inputs": [
        {
          "indexed": false,
          "internalType": "uint256",
          "name": "price",
          "type": "uint256"
        },
        {
          "indexed": false,
          "internalType": "uint256",
          "name": "timestamp",
          "type": "uint256"
        },
        {
          "indexed": false,
          "internalType": "uint8",
          "name": "indexAt",
          "type": "uint8"
        }
      ],
      "name": "PriceUpdated",
      "type": "event"
    },
    {
      "inputs": [
        {
          "internalType": "uint256",
          "name": "interval",
          "type": "uint256"
        }
      ],
      "name": "cacheTwap",
      "outputs": [
        {
          "internalType": "uint256",
          "name": "",
          "type": "uint256"
        }
      ],
      "stateMutability": "nonpayable",
      "type": "function"
    },
    {
      "inputs": [],
      "name": "currentObservationIndex",
      "outputs": [
        {
          "internalType": "uint8",
          "name": "",
          "type": "uint8"
        }
      ],
      "stateMutability": "view",
      "type": "function"
    },
    {
      "inputs": [],
      "name": "decimals",
      "outputs": [
        {
          "internalType": "uint8",
          "name": "",
          "type": "uint8"
        }
      ],
      "stateMutability": "view",
      "type": "function"
    },
    {
      "inputs": [
        {
          "internalType": "uint256",
          "name": "interval",
          "type": "uint256"
        }
      ],
      "name": "getPrice",
      "outputs": [
        {
          "internalType": "uint256",
          "name": "",
          "type": "uint256"
        }
      ],
      "stateMutability": "view",
      "type": "function"
    },
    {
      "inputs": [
        {
          "internalType": "uint256",
          "name": "",
          "type": "uint256"
        }
      ],
      "name": "observations",
      "outputs": [
        {
          "internalType": "uint256",
          "name": "price",
          "type": "uint256"
        },
        {
          "internalType": "uint256",
          "name": "priceCumulative",
          "type": "uint256"
        },
        {
          "internalType": "uint256",
          "name": "timestamp",
          "type": "uint256"
        }
      ],
      "stateMutability": "view",
      "type": "function"
    },
    {
      "inputs": [],
      "name": "update",
      "outputs": [],
      "stateMutability": "nonpayable",
      "type": "function"
    }
  ],
  "bytecode": "0x60a060405234801561001057600080fd5b50604051610e28380380610e288339818101604052604081101561003357600080fd5b5080516020918201516103028054600160a01b600160f01b031916600160a01b6001600160501b03841602179055909161007f906001600160a01b038416906100d0811b61028d17901c565b6100ba576040805162461bcd60e51b81526020600482015260076024820152664350465f414e4360c81b604482015290519081900360640190fd5b5060601b6001600160601b0319166080526100d6565b3b151590565b60805160601c610d2661010260003980610199528061029e528061065252806107185250610d266000f3fe608060405234801561001057600080fd5b50600436106100625760003560e01c80631d1a111a14610067578063252c09d714610096578063313ce567146100d1578063a2e62045146100ef578063aed3aff7146100f9578063e757223014610101575b600080fd5b6100846004803603602081101561007d57600080fd5b503561011e565b60408051918252519081900360200190f35b6100b3600480360360208110156100ac57600080fd5b503561016d565b60408051938452602084019290925282820152519081900360600190f35b6100d9610195565b6040805160ff9092168252519081900360200190f35b6100f7610221565b005b6100d961023f565b6100846004803603602081101561011757600080fd5b5035610249565b60008060008061012c610293565b925092509250846000148061014857506001600160501b038316155b15610157575091506101689050565b61016285838361036a565b93505050505b919050565b600081610100811061017e57600080fd5b600302018054600182015460029092015490925083565b60007f00000000000000000000000000000000000000000000000000000000000000006001600160a01b031663313ce5676040518163ffffffff1660e01b815260040160206040518083038186803b1580156101f057600080fd5b505afa158015610204573d6000803e3d6000fd5b505050506040513d602081101561021a57600080fd5b5051905090565b60008061022c610293565b925092505061023b828261040c565b5050565b6103005460ff1681565b600080600080610257610293565b925092509250846000148061027357506001600160501b038316155b15610282575091506101689050565b6101628583836105c1565b3b151590565b6000806000806000807f00000000000000000000000000000000000000000000000000000000000000006001600160a01b031663feaf968c6040518163ffffffff1660e01b815260040160a06040518083038186803b1580156102f557600080fd5b505afa158015610309573d6000803e3d6000fd5b505050506040513d60a081101561031f57600080fd5b508051602082015160609092015191965093508592509050600082121561035e57610349836105fc565b61035560018403610647565b90965090935090505b91945090915050909192565b61030254600090600160a01b90046001600160501b03168414610399576103928484846107d0565b9050610405565b610302546001600160a01b03166103ae610967565b14156103be575061030154610405565b6103c8838361040c565b6103d0610967565b61030280546001600160a01b0319166001600160a01b03929092169190911790556103fc8484846107d0565b61030181905590505b9392505050565b6103005460ff161580156104205750600254155b1561048c57604080516060810182528381526000602082018190529082018390528381556001819055600283905590517f5f4a9a1b73bee700ca1fb203bb004bcc0a7eca48af3f147b24dcf5bf4bf3c00b9161047f9185918591610cb6565b60405180910390a161023b565b61030054600090819060ff1661010081106104a357fe5b604080516060810182526003929092029290920180548252600181015460208301526002015491810182905291508210156104f95760405162461bcd60e51b81526004016104f090610c78565b60405180910390fd5b610300805460ff198116600160ff9283160182161791829055604083810151815160608101835287815285516020808801519389039182029093019282019290925291820186905292909160009116610100811061055357fe5b825160039190910291909101908155602082015160018201556040918201516002909101556103005490517f5f4a9a1b73bee700ca1fb203bb004bcc0a7eca48af3f147b24dcf5bf4bf3c00b916105b3918791879160ff90911690610cb6565b60405180910390a150505050565b610302546000906001600160a01b03166105d9610967565b14156105e9575061030154610405565b6105f48484846107d0565b949350505050565b6000816001600160501b031611610644576040805162461bcd60e51b8152602060048201526007602482015266086a08cbe9c8a960cb1b604482015290519081900360640190fd5b50565b6000806000806000807f00000000000000000000000000000000000000000000000000000000000000006001600160a01b0316639a6fc8f5886040518263ffffffff1660e01b815260040180826001600160501b0316815260200191505060a06040518083038186803b1580156106bd57600080fd5b505afa1580156106d1573d6000803e3d6000fd5b505050506040513d60a08110156106e757600080fd5b508051602082015160609092015190945090925090505b60008212156107c357610710836105fc565b6001830392507f00000000000000000000000000000000000000000000000000000000000000006001600160a01b0316639a6fc8f5846040518263ffffffff1660e01b815260040180826001600160501b0316815260200191505060a06040518083038186803b15801561078357600080fd5b505afa158015610797573d6000803e3d6000fd5b505050506040513d60a08110156107ad57600080fd5b50602081015160609091015190925090506106fe565b9196909550909350915050565b610300546000908190819060ff1661010081106107e957fe5b600302016040518060600160405290816000820154815260200160018201548152602001600282015481525050905080600001516000141561083d5760405162461bcd60e51b81526004016104f090610c97565b6000610847610967565b90506000610855828861096b565b9050600080610863836109cd565b909250905060006108b76108ac61088461087d888c61096b565b8c90610b1d565b6108a661089e8a604001518d61096b90919063ffffffff16565b8a5190610b1d565b90610b76565b602088015190610b76565b90506000836040015185116108d9578360400151945083602001519050610948565b848360400151116108f7578260400151945082602001519050610948565b60008460400151846040015103905060008560400151870390506109436108ac8361093d846109378b602001518b6020015161096b90919063ffffffff16565b90610b1d565b90610bd0565b925050505b61095885870361093d848461096b565b9b9a5050505050505050505050565b4290565b6000828211156109c2576040805162461bcd60e51b815260206004820152601e60248201527f536166654d6174683a207375627472616374696f6e206f766572666c6f770000604482015290519081900360640190fd5b508082035b92915050565b6109d5610c37565b6109dd610c37565b6103005460ff16600080610100815b81811015610a5f578760008660ff166101008110610a0657fe5b600302016002015411610a505760008560ff166101008110610a2457fe5b600302016002015460001415610a4257846001019350839250610a5f565b849350836001019250610a5f565b600019909401936001016109ec565b81811415610a7f5760405162461bcd60e51b81526004016104f090610c58565b60008460ff166101008110610a9057fe5b600302016040518060600160405290816000820154815260200160018201548152602001600282015481525050965060008360ff166101008110610ad057fe5b6003020160405180606001604052908160008201548152602001600182015481526020016002820154815250509550866040015186604001511015610b13578695505b5050505050915091565b600082610b2c575060006109c7565b82820282848281610b3957fe5b04146104055760405162461bcd60e51b8152600401808060200182810382526021815260200180610cd06021913960400191505060405180910390fd5b600082820183811015610405576040805162461bcd60e51b815260206004820152601b60248201527f536166654d6174683a206164646974696f6e206f766572666c6f770000000000604482015290519081900360640190fd5b6000808211610c26576040805162461bcd60e51b815260206004820152601a60248201527f536166654d6174683a206469766973696f6e206279207a65726f000000000000604482015290519081900360640190fd5b818381610c2f57fe5b049392505050565b60405180606001604052806000815260200160008152602001600081525090565b602080825260069082015265086a8be9c8a960d31b604082015260600190565b60208082526005908201526410d517d25560da1b604082015260600190565b60208082526005908201526410d517d39160da1b604082015260600190565b928352602083019190915260ff1660408201526060019056fe536166654d6174683a206d756c7469706c69636174696f6e206f766572666c6f77a2646970667358221220f12ba8f3839146b970608a5fdcace0064204f48bdf5d884aa9ae72a3e1110d0764736f6c63430007060033",
  "linkReferences": {},
  "deployedLinkReferences": {}
}