{
  "_format": "hh-sol-artifact-1",
  "contractName": "ChainlinkPriceFeedV3",
  "sourceName": "contracts/ChainlinkPriceFeedV3.sol",
  "abi": [
    {
      "inputs": [
        {
          "internalType": "contract AggregatorV3Interface",
          "name": "aggregator",
          "type": "address"
        },
        {
          "internalType": "uint256",
          "name": "timeout",
          "type": "uint256"
        },
        {
          "internalType": "uint24",
          "name": "maxOutlierDeviationRatio",
          "type": "uint24"
        },
        {
          "internalType": "uint256",
          "name": "outlierCoolDownPeriod",
          "type": "uint256"
        },
        {
          "internalType": "uint80",
          "name": "twapInterval",
          "type": "uint80"
        }
      ],
      "stateMutability": "nonpayable",
      "type": "constructor"
    },
    {
      "anonymous": false,
      "inputs": [
        {
          "indexed": false,
          "internalType": "uint256",
          "name": "price",
          "type": "uint256"
        },
        {
          "indexed": false,
          "internalType": "uint256",
          "name": "timestamp",
          "type": "uint256"
        },
        {
          "indexed": false,
          "internalType": "enum IChainlinkPriceFeedV3Event.FreezedReason",
          "name": "freezedReason",
          "type": "uint8"
        }
      ],
      "name": "ChainlinkPriceUpdated",
      "type": "event"
    },
    {
      "inputs": [
        {
          "internalType": "uint256",
          "name": "interval",
          "type": "uint256"
        }
      ],
      "name": "cacheTwap",
      "outputs": [],
      "stateMutability": "nonpayable",
      "type": "function"
    },
    {
      "inputs": [],
      "name": "currentObservationIndex",
      "outputs": [
        {
          "internalType": "uint8",
          "name": "",
          "type": "uint8"
        }
      ],
      "stateMutability": "view",
      "type": "function"
    },
    {
      "inputs": [],
      "name": "decimals",
      "outputs": [
        {
          "internalType": "uint8",
          "name": "",
          "type": "uint8"
        }
      ],
      "stateMutability": "view",
      "type": "function"
    },
    {
      "inputs": [],
      "name": "getAggregator",
      "outputs": [
        {
          "internalType": "address",
          "name": "",
          "type": "address"
        }
      ],
      "stateMutability": "view",
      "type": "function"
    },
    {
      "inputs": [
        {
          "internalType": "uint256",
          "name": "interval",
          "type": "uint256"
        }
      ],
      "name": "getCachedTwap",
      "outputs": [
        {
          "internalType": "uint256",
          "name": "",
          "type": "uint256"
        }
      ],
      "stateMutability": "view",
      "type": "function"
    },
    {
      "inputs": [],
      "name": "getLastValidPrice",
      "outputs": [
        {
          "internalType": "uint256",
          "name": "",
          "type": "uint256"
        }
      ],
      "stateMutability": "view",
      "type": "function"
    },
    {
      "inputs": [],
      "name": "getLastValidTimestamp",
      "outputs": [
        {
          "internalType": "uint256",
          "name": "",
          "type": "uint256"
        }
      ],
      "stateMutability": "view",
      "type": "function"
    },
    {
      "inputs": [],
      "name": "isTimedOut",
      "outputs": [
        {
          "internalType": "bool",
          "name": "",
          "type": "bool"
        }
      ],
      "stateMutability": "view",
      "type": "function"
    },
    {
      "inputs": [
        {
          "internalType": "uint256",
          "name": "",
          "type": "uint256"
        }
      ],
      "name": "observations",
      "outputs": [
        {
          "internalType": "uint256",
          "name": "price",
          "type": "uint256"
        },
        {
          "internalType": "uint256",
          "name": "priceCumulative",
          "type": "uint256"
        },
        {
          "internalType": "uint256",
          "name": "timestamp",
          "type": "uint256"
        }
      ],
      "stateMutability": "view",
      "type": "function"
    }
  ],
  "bytecode": "0x6101206040523480156200001257600080fd5b506040516200141c3803806200141c8339810160408190526200003591620001b1565b6103028054600160a01b600160f01b031916600160a01b6001600160501b038416021790556200007a6001600160a01b038616620001ab602090811b6200026f17901c565b620000a25760405162461bcd60e51b815260040162000099906200027f565b60405180910390fd5b6001600160601b0319606086901b1661010052620f424062ffffff841610620000df5760405162461bcd60e51b815260040162000099906200025c565b6001600160e81b031960e884901b1660a05260c082905260e08490526040805163313ce56760e01b815290516001600160a01b0387169163313ce567916004808301926020929190829003018186803b1580156200013c57600080fd5b505afa15801562000151573d6000803e3d6000fd5b505050506040513d601f19601f8201168201806040525081019062000177919062000232565b60f81b7fff000000000000000000000000000000000000000000000000000000000000001660805250620002a09350505050565b3b151590565b600080600080600060a08688031215620001c9578081fd5b85516001600160a01b0381168114620001e0578182fd5b60208701516040880151919650945062ffffff8116811462000200578182fd5b6060870151608088015191945092506001600160501b038116811462000224578182fd5b809150509295509295909350565b60006020828403121562000244578081fd5b815160ff8116811462000255578182fd5b9392505050565b60208082526009908201526821a8232fa4a6a7a22960b91b604082015260600190565b6020808252600790820152664350465f414e4360c81b604082015260600190565b60805160f81c60a05160e81c60c05160e0516101005160601c61110b620003116000398061020d52806106be52806107585250806101955250806102fe5280610590525080610343528061036e52806105d552806106005280610ad85250806101e95280610822525061110b6000f3fe608060405234801561001057600080fd5b50600436106100925760003560e01c8063252c09d711610066578063252c09d7146100e7578063313ce567146101095780633ad59dbc1461011e578063a6f56bea14610133578063aed3aff71461014657610092565b80626059a014610097578063086a855e146100b55780631d1a111a146100bd5780631d7866de146100d2575b600080fd5b61009f61014e565b6040516100ac9190611061565b60405180910390f35b61009f610156565b6100d06100cb366004610f7b565b61015d565b005b6100da610181565b6040516100ac9190611017565b6100fa6100f5366004610f7b565b6101bf565b6040516100ac93929190611090565b6101116101e7565b6040516100ac91906110a6565b61012661020b565b6040516100ac9190611003565b61009f610141366004610f7b565b61022f565b610111610266565b610303545b90565b6103045490565b610165610275565b801561017e5761017c8161030354610304546103fa565b505b50565b600061018b610493565b610304546101b9907f0000000000000000000000000000000000000000000000000000000000000000610497565b11905090565b60018161010081106101d057600080fd5b600302018054600182015460029092015490925083565b7f000000000000000000000000000000000000000000000000000000000000000090565b7f000000000000000000000000000000000000000000000000000000000000000090565b600080600061023c6104fa565b91509150836000141561025157509050610261565b61025c84838361065b565b925050505b919050565b60005460ff1681565b3b151590565b600061027f6106b4565b90506103045460001415801561029b5750806040015161030454145b156102a657506103f8565b60006102b18261080d565b905060008160068111156102c157fe5b14156102de576020820151610303556040820151610304556103b4565b60068160068111156102ec57fe5b14801561032c575061030454610322907f0000000000000000000000000000000000000000000000000000000000000000610497565b61032a610493565b115b156103b45760006103035483602001511161036c577f0000000000000000000000000000000000000000000000000000000000000000620f424003610393565b7f0000000000000000000000000000000000000000000000000000000000000000620f4240015b90506103a261030354826108fa565b610303556103ae610493565b61030455505b7fcfc00d555c19103be8966c15035956ddd6912f374557b4e585dd076399400c306103035461030454836040516103ed9392919061106a565b60405180910390a150505b565b61030254600090600160a01b90046001600160501b0316841461042957610422848484610918565b905061048c565b610302546001600160a01b031661043e610493565b146104865761044d838361093f565b610455610493565b61030280546001600160a01b0319166001600160a01b0392909216919091179055610481848484610918565b610301555b50610301545b9392505050565b4290565b6000828201838110156104f1576040805162461bcd60e51b815260206004820152601b60248201527f536166654d6174683a206164646974696f6e206f766572666c6f770000000000604482015290519081900360640190fd5b90505b92915050565b60008060006105076106b4565b9050610304546000141580156105235750806040015161030454145b1561053a5761030354610304549250925050610657565b60006105458261080d565b9050600081600681111561055557fe5b14156105705781602001518260400151935093505050610657565b600681600681111561057e57fe5b1480156105be5750610304546105b4907f0000000000000000000000000000000000000000000000000000000000000000610497565b6105bc610493565b115b15610648576000610303548360200151116105fe577f0000000000000000000000000000000000000000000000000000000000000000620f424003610625565b7f0000000000000000000000000000000000000000000000000000000000000000620f4240015b905061063461030354826108fa565b61063c610493565b94509450505050610657565b61030354610304549350935050505b9091565b610302546000906001600160a01b0316610673610493565b148015610692575061030254600160a01b90046001600160501b031684145b156106a157506103015461048c565b6106ac848484610918565b949350505050565b6106bc610f15565b7f00000000000000000000000000000000000000000000000000000000000000006001600160a01b031663313ce5676040518163ffffffff1660e01b815260040160206040518083038186803b15801561071557600080fd5b505afa925050508015610745575060408051601f3d908101601f1916820190925261074291810190610fe2565b60015b61074e57610153565b60ff1660808201527f00000000000000000000000000000000000000000000000000000000000000006001600160a01b031663feaf968c6040518163ffffffff1660e01b815260040160a06040518083038186803b1580156107af57600080fd5b505afa9250505080156107df575060408051601f3d908101601f191682019092526107dc91810190610f93565b60015b6107e857610153565b506001600160501b039093168452506020830152604082015260016060820152610153565b6000816060015161082057506001610261565b7f000000000000000000000000000000000000000000000000000000000000000060ff16826080015160ff161461085957506002610261565b81516001600160501b031661087057506003610261565b604082015115806108875750610304548260400151105b8061089c5750610895610493565b8260400151115b156108a957506004610261565b60008260200151136108bd57506005610261565b61030354158015906108d157506103045415155b80156108e557506108e58260200151610a9b565b156108f257506006610261565b506000919050565b60006104f1620f42406109128562ffffff8616610b06565b90610b5f565b600080610926858585610bc6565b905080156109345780610936565b835b95945050505050565b60005460ff161580156109525750600354155b156109ac576040518060600160405280838152602001600081526020018281525060016000610100811061098257fe5b6003020160008201518160000155602082015181600101556040820151816002015590505061017c565b6000805460019060ff1661010081106109c157fe5b604080516060810182526003929092029290920180548252600181015460208301526002015491810182905291508211610a165760405162461bcd60e51b8152600401610a0d90611042565b60405180910390fd5b6000805460ff198116600160ff92831681018316919091179283905560408481015181516060810183528881528651602080890151938a0391820290930192820192909252918201879052939092166101008110610a7057fe5b6003020160008201518160000155602082015181600101556040820151816002015590505050505050565b60008082610303541015610ab457610303548303610abb565b8261030354035b61030354909150600090610ad69061091284620f4240610b06565b7f000000000000000000000000000000000000000000000000000000000000000062ffffff161115949350505050565b600082610b15575060006104f4565b82820282848281610b2257fe5b04146104f15760405162461bcd60e51b81526004018080602001828103825260218152602001806110b56021913960400191505060405180910390fd5b6000808211610bb5576040805162461bcd60e51b815260206004820152601a60248201527f536166654d6174683a206469766973696f6e206279207a65726f000000000000604482015290519081900360640190fd5b818381610bbe57fe5b049392505050565b6000805460ff16158015610bda5750600354155b15610be75750600061048c565b6000805460019060ff166101008110610bfc57fe5b60030201604051806060016040529081600082015481526020016001820154815260200160028201548152505090506000610c35610493565b90506000610c438288610d69565b90506000610c94610c89610c61610c5a868a610d69565b8a90610b06565b610c83610c7b88604001518b610d6990919063ffffffff16565b885190610b06565b90610497565b602086015190610497565b9050600080610ca284610dc6565b91509150600082604001518511610cc6578260400151945082602001519050610d3a565b84826040015111610ce4578160400151945081602001519050610d3a565b6000836040015183604001510390506000846040015187039050610d35610d2a8361091284610d248a602001518a60200151610d6990919063ffffffff16565b90610b06565b602087015190610497565b925050505b8486038015610d5657610d51816109128785610d69565b610d59565b60005b9c9b505050505050505050505050565b600082821115610dc0576040805162461bcd60e51b815260206004820152601e60248201527f536166654d6174683a207375627472616374696f6e206f766572666c6f770000604482015290519081900360640190fd5b50900390565b610dce610f43565b610dd6610f43565b6000805460ff169080610100815b81811015610e57578760018660ff166101008110610dfe57fe5b600302016002015411610e485760018560ff166101008110610e1c57fe5b600302016002015460001415610e3a57846001019350839250610e57565b849350836001019250610e57565b60001990940193600101610de4565b81811415610e775760405162461bcd60e51b8152600401610a0d90611022565b60018460ff166101008110610e8857fe5b600302016040518060600160405290816000820154815260200160018201548152602001600282015481525050965060018360ff166101008110610ec857fe5b6003020160405180606001604052908160008201548152602001600182015481526020016002820154815250509550866040015186604001511015610f0b578695505b5050505050915091565b6040805160a08101825260008082526020820181905291810182905260608101829052608081019190915290565b60405180606001604052806000815260200160008152602001600081525090565b80516001600160501b038116811461026157600080fd5b600060208284031215610f8c578081fd5b5035919050565b600080600080600060a08688031215610faa578081fd5b610fb386610f64565b9450602086015193506040860151925060608601519150610fd660808701610f64565b90509295509295909350565b600060208284031215610ff3578081fd5b815160ff811681146104f1578182fd5b6001600160a01b0391909116815260200190565b901515815260200190565b602080825260069082015265086a8be9c8a960d31b604082015260600190565b60208082526005908201526410d517d25560da1b604082015260600190565b90815260200190565b83815260208101839052606081016007831061108257fe5b826040830152949350505050565b9283526020830191909152604082015260600190565b60ff9190911681526020019056fe536166654d6174683a206d756c7469706c69636174696f6e206f766572666c6f77a2646970667358221220eecb6659531f11c326b8eb64b838fb80cd1f72ca537b4f84a73e12f495b5158c64736f6c63430007060033",
  "linkReferences": {},
  "deployedLinkReferences": {}
}