{
  "_format": "hh-sol-artifact-1",
  "contractName": "TestStdReference",
  "sourceName": "contracts/test/TestStdReference.sol",
  "abi": [
    {
      "inputs": [],
      "stateMutability": "nonpayable",
      "type": "constructor"
    },
    {
      "inputs": [
        {
          "internalType": "string",
          "name": "_base",
          "type": "string"
        },
        {
          "internalType": "string",
          "name": "_quote",
          "type": "string"
        }
      ],
      "name": "getReferenceData",
      "outputs": [
        {
          "components": [
            {
              "internalType": "uint256",
              "name": "rate",
              "type": "uint256"
            },
            {
              "internalType": "uint256",
              "name": "lastUpdatedBase",
              "type": "uint256"
            },
            {
              "internalType": "uint256",
              "name": "lastUpdatedQuote",
              "type": "uint256"
            }
          ],
          "internalType": "struct IStdReference.ReferenceData",
          "name": "",
          "type": "tuple"
        }
      ],
      "stateMutability": "view",
      "type": "function"
    },
    {
      "inputs": [
        {
          "internalType": "string[]",
          "name": "_bases",
          "type": "string[]"
        },
        {
          "internalType": "string[]",
          "name": "_quotes",
          "type": "string[]"
        }
      ],
      "name": "getReferenceDataBulk",
      "outputs": [
        {
          "components": [
            {
              "internalType": "uint256",
              "name": "rate",
              "type": "uint256"
            },
            {
              "internalType": "uint256",
              "name": "lastUpdatedBase",
              "type": "uint256"
            },
            {
              "internalType": "uint256",
              "name": "lastUpdatedQuote",
              "type": "uint256"
            }
          ],
          "internalType": "struct IStdReference.ReferenceData[]",
          "name": "",
          "type": "tuple[]"
        }
      ],
      "stateMutability": "view",
      "type": "function"
    },
    {
      "inputs": [],
      "name": "refData",
      "outputs": [
        {
          "internalType": "uint256",
          "name": "rate",
          "type": "uint256"
        },
        {
          "internalType": "uint256",
          "name": "lastUpdatedBase",
          "type": "uint256"
        },
        {
          "internalType": "uint256",
          "name": "lastUpdatedQuote",
          "type": "uint256"
        }
      ],
      "stateMutability": "view",
      "type": "function"
    },
    {
      "inputs": [
        {
          "components": [
            {
              "internalType": "uint256",
              "name": "rate",
              "type": "uint256"
            },
            {
              "internalType": "uint256",
              "name": "lastUpdatedBase",
              "type": "uint256"
            },
            {
              "internalType": "uint256",
              "name": "lastUpdatedQuote",
              "type": "uint256"
            }
          ],
          "internalType": "struct IStdReference.ReferenceData",
          "name": "_refData",
          "type": "tuple"
        }
      ],
      "name": "setReferenceData",
      "outputs": [],
      "stateMutability": "nonpayable",
      "type": "function"
    }
  ],
  "bytecode": "0x608060405234801561001057600080fd5b5061040d806100206000396000f3fe608060405234801561001057600080fd5b506004361061004c5760003560e01c806365555bcc146100515780636d4d68151461007a578063dd5bed931461008f578063e42a071b146100a6575b600080fd5b61006461005f36600461027c565b6100c6565b604051610071919061038f565b60405180910390f35b61008d6100883660046102d3565b6100f7565b005b61009761010d565b6040516100719392919061039d565b6100b96100b436600461021b565b610119565b6040516100719190610341565b6100ce610120565b506040805160608101825260005481526001546020820152600254918101919091525b92915050565b8051600055602081015160015560400151600255565b60005460015460025483565b6060600080fd5b60405180606001604052806000815260200160008152602001600081525090565b600082601f830112610151578081fd5b8135602067ffffffffffffffff82111561016757fe5b61017481828402016103b3565b82815281810190858301855b858110156101a957610197898684358b01016101b6565b84529284019290840190600101610180565b5090979650505050505050565b600082601f8301126101c6578081fd5b813567ffffffffffffffff8111156101da57fe5b6101ed601f8201601f19166020016103b3565b818152846020838601011115610201578283fd5b816020850160208301379081016020019190915292915050565b6000806040838503121561022d578182fd5b823567ffffffffffffffff80821115610244578384fd5b61025086838701610141565b93506020850135915080821115610265578283fd5b5061027285828601610141565b9150509250929050565b6000806040838503121561028e578182fd5b823567ffffffffffffffff808211156102a5578384fd5b6102b1868387016101b6565b935060208501359150808211156102c6578283fd5b50610272858286016101b6565b6000606082840312156102e4578081fd5b6040516060810181811067ffffffffffffffff8211171561030157fe5b80604052508235815260208301356020820152604083013560408201528091505092915050565b8051825260208082015190830152604090810151910152565b6020808252825182820181905260009190848201906040850190845b8181101561038357610370838551610328565b928401926060929092019160010161035d565b50909695505050505050565b606081016100f18284610328565b9283526020830191909152604082015260600190565b60405181810167ffffffffffffffff811182821017156103cf57fe5b60405291905056fea26469706673582212200153473874d9f1597d91cbac5a5165e1467ab6602546135b88bfe3cda5f4d68464736f6c63430007060033",
  "linkReferences": {},
  "deployedLinkReferences": {}
}