{
  "_format": "hh-sol-artifact-1",
  "contractName": "TestAggregatorV3",
  "sourceName": "contracts/test/TestAggregatorV3.sol",
  "abi": [
    {
      "inputs": [],
      "stateMutability": "nonpayable",
      "type": "constructor"
    },
    {
      "inputs": [
        {
          "internalType": "uint16",
          "name": "phaseId",
          "type": "uint16"
        },
        {
          "internalType": "uint64",
          "name": "aggregatorRoundId",
          "type": "uint64"
        }
      ],
      "name": "computeRoundId",
      "outputs": [
        {
          "internalType": "uint80",
          "name": "",
          "type": "uint80"
        }
      ],
      "stateMutability": "pure",
      "type": "function"
    },
    {
      "inputs": [],
      "name": "decimals",
      "outputs": [
        {
          "internalType": "uint8",
          "name": "",
          "type": "uint8"
        }
      ],
      "stateMutability": "view",
      "type": "function"
    },
    {
      "inputs": [],
      "name": "description",
      "outputs": [
        {
          "internalType": "string",
          "name": "",
          "type": "string"
        }
      ],
      "stateMutability": "view",
      "type": "function"
    },
    {
      "inputs": [
        {
          "internalType": "uint80",
          "name": "_roundId",
          "type": "uint80"
        }
      ],
      "name": "getRoundData",
      "outputs": [
        {
          "internalType": "uint80",
          "name": "roundId",
          "type": "uint80"
        },
        {
          "internalType": "int256",
          "name": "answer",
          "type": "int256"
        },
        {
          "internalType": "uint256",
          "name": "startedAt",
          "type": "uint256"
        },
        {
          "internalType": "uint256",
          "name": "updatedAt",
          "type": "uint256"
        },
        {
          "internalType": "uint80",
          "name": "answeredInRound",
          "type": "uint80"
        }
      ],
      "stateMutability": "view",
      "type": "function"
    },
    {
      "inputs": [],
      "name": "latestRound",
      "outputs": [
        {
          "internalType": "uint80",
          "name": "",
          "type": "uint80"
        }
      ],
      "stateMutability": "view",
      "type": "function"
    },
    {
      "inputs": [],
      "name": "latestRoundData",
      "outputs": [
        {
          "internalType": "uint80",
          "name": "roundId",
          "type": "uint80"
        },
        {
          "internalType": "int256",
          "name": "answer",
          "type": "int256"
        },
        {
          "internalType": "uint256",
          "name": "startedAt",
          "type": "uint256"
        },
        {
          "internalType": "uint256",
          "name": "updatedAt",
          "type": "uint256"
        },
        {
          "internalType": "uint80",
          "name": "answeredInRound",
          "type": "uint80"
        }
      ],
      "stateMutability": "view",
      "type": "function"
    },
    {
      "inputs": [
        {
          "internalType": "uint80",
          "name": "",
          "type": "uint80"
        }
      ],
      "name": "roundData",
      "outputs": [
        {
          "internalType": "int256",
          "name": "answer",
          "type": "int256"
        },
        {
          "internalType": "uint256",
          "name": "startedAt",
          "type": "uint256"
        },
        {
          "internalType": "uint256",
          "name": "updatedAt",
          "type": "uint256"
        },
        {
          "internalType": "uint80",
          "name": "answeredInRound",
          "type": "uint80"
        }
      ],
      "stateMutability": "view",
      "type": "function"
    },
    {
      "inputs": [
        {
          "internalType": "uint80",
          "name": "roundId",
          "type": "uint80"
        },
        {
          "internalType": "int256",
          "name": "answer",
          "type": "int256"
        },
        {
          "internalType": "uint256",
          "name": "startedAt",
          "type": "uint256"
        },
        {
          "internalType": "uint256",
          "name": "updatedAt",
          "type": "uint256"
        },
        {
          "internalType": "uint80",
          "name": "answeredInRound",
          "type": "uint80"
        }
      ],
      "name": "setRoundData",
      "outputs": [],
      "stateMutability": "nonpayable",
      "type": "function"
    },
    {
      "inputs": [],
      "name": "version",
      "outputs": [
        {
          "internalType": "uint256",
          "name": "",
          "type": "uint256"
        }
      ],
      "stateMutability": "view",
      "type": "function"
    }
  ],
  "bytecode": "0x608060405234801561001057600080fd5b50610440806100206000396000f3fe608060405234801561001057600080fd5b50600436106100935760003560e01c8063668a0f0211610066578063668a0f02146101615780637284e416146101695780639a6fc8f5146101e6578063bc81bae814610250578063feaf968c146102a557610093565b80631c12940a14610098578063313ce567146100dc57806354fd4d50146100fa57806355538e4614610114575b600080fd5b6100da600480360360a08110156100ae57600080fd5b506001600160501b038135811691602081013591604082013591606081013591608090910135166102ad565b005b6100e4610329565b6040805160ff9092168252519081900360200190f35b61010261032e565b60408051918252519081900360200190f35b6101456004803603604081101561012a57600080fd5b50803561ffff16906020013567ffffffffffffffff16610335565b604080516001600160501b039092168252519081900360200190f35b610145610355565b610171610364565b6040805160208082528351818301528351919283929083019185019080838360005b838110156101ab578181015183820152602001610193565b50505050905090810190601f1680156101d85780820380516001836020036101000a031916815260200191505b509250505060405180910390f35b61020c600480360360208110156101fc57600080fd5b50356001600160501b031661036b565b60405180866001600160501b03168152602001858152602001848152602001838152602001826001600160501b031681526020019550505050505060405180910390f35b6102766004803603602081101561026657600080fd5b50356001600160501b03166103a0565b604080519485526020850193909352838301919091526001600160501b03166060830152519081900360800190f35b61020c6103d0565b6040805160808101825294855260208086019485528582019384526001600160501b0392831660608701908152968316600081815291829052919020945185559251600180860191909155915160028501559351600390930180549390941669ffffffffffffffffffff19938416179093558254909116179055565b601290565b6000806000fd5b67ffffffffffffffff1660409190911b69ffff0000000000000000161790565b6001546001600160501b031681565b6060600080fd5b6001600160501b0381811660009081526020819052604090208054600182015460028301546003909301549495919490931690565b6000602081905290815260409020805460018201546002830154600390930154919290916001600160501b031684565b600180546001600160501b03908116600081815260208190526040902080549381015460028201546003909201549295909391929091169056fea2646970667358221220ac8afcd7f3c11d7cae424259c3b4be4210e3af47051cf989e624d464368db92b64736f6c63430007060033",
  "linkReferences": {},
  "deployedLinkReferences": {}
}