{
  "_format": "hh-sol-artifact-1",
  "contractName": "EmergencyPriceFeed",
  "sourceName": "contracts/EmergencyPriceFeed.sol",
  "abi": [
    {
      "inputs": [
        {
          "internalType": "address",
          "name": "poolArg",
          "type": "address"
        }
      ],
      "stateMutability": "nonpayable",
      "type": "constructor"
    },
    {
      "inputs": [
        {
          "internalType": "uint256",
          "name": "interval",
          "type": "uint256"
        }
      ],
      "name": "cacheTwap",
      "outputs": [
        {
          "internalType": "uint256",
          "name": "",
          "type": "uint256"
        }
      ],
      "stateMutability": "nonpayable",
      "type": "function"
    },
    {
      "inputs": [],
      "name": "decimals",
      "outputs": [
        {
          "internalType": "uint8",
          "name": "",
          "type": "uint8"
        }
      ],
      "stateMutability": "pure",
      "type": "function"
    },
    {
      "inputs": [
        {
          "internalType": "uint256",
          "name": "interval",
          "type": "uint256"
        }
      ],
      "name": "getPrice",
      "outputs": [
        {
          "internalType": "uint256",
          "name": "",
          "type": "uint256"
        }
      ],
      "stateMutability": "view",
      "type": "function"
    },
    {
      "inputs": [],
      "name": "pool",
      "outputs": [
        {
          "internalType": "address",
          "name": "",
          "type": "address"
        }
      ],
      "stateMutability": "view",
      "type": "function"
    }
  ],
  "bytecode": "0x608060405234801561001057600080fd5b50604051610b80380380610b8083398101604081905261002f9161009b565b61004b816001600160a01b031661009560201b6101011760201c565b6100705760405162461bcd60e51b8152600401610067906100c9565b60405180910390fd5b600080546001600160a01b0319166001600160a01b03929092169190911790556100eb565b3b151590565b6000602082840312156100ac578081fd5b81516001600160a01b03811681146100c2578182fd5b9392505050565b6020808252600890820152674550465f45414e4360c01b604082015260600190565b610a86806100fa6000396000f3fe608060405234801561001057600080fd5b506004361061004c5760003560e01c806316f0115b146100515780631d1a111a1461006f578063313ce5671461008f578063e7572230146100a4575b600080fd5b6100596100b7565b6040516100669190610953565b60405180910390f35b61008261007d36600461093b565b6100c6565b60405161006691906109f7565b6100976100cc565b6040516100669190610a00565b6100826100b236600461093b565b6100d1565b6000546001600160a01b031681565b50600090565b601290565b6000806100ed6100e86100e385610107565b610136565b610320565b90506100f881610340565b9150505b919050565b3b151590565b8063ffffffff811681146100fc5760405162461bcd60e51b815260040161012d906109b1565b60405180910390fd5b6000600a8263ffffffff1610156101de5760008060009054906101000a90046001600160a01b03166001600160a01b0316633850c7bd6040518163ffffffff1660e01b815260040160e06040518083038186803b15801561019657600080fd5b505afa1580156101aa573d6000803e3d6000fd5b505050506040513d601f19601f820116820180604052508101906101ce919061089f565b509496506100fc95505050505050565b604080516002808252606082018352600092602083019080368337019050509050828160008151811061020d57fe5b602002602001019063ffffffff16908163ffffffff168152505060008160018151811061023657fe5b63ffffffff909216602092830291909101909101526000805460405163883bdbfd60e01b81526001600160a01b039091169063883bdbfd9061027c908590600401610967565b60006040518083038186803b15801561029457600080fd5b505afa1580156102a8573d6000803e3d6000fd5b505050506040513d6000823e601f3d908101601f191682016040526102d091908101906107d7565b5090506103188463ffffffff16826000815181106102ea57fe5b6020026020010151836001815181106102ff57fe5b60200260200101510360060b8161031257fe5b05610359565b949350505050565b600061033a6001600160a01b03831680600160601b61068b565b92915050565b600061033a82670de0b6b3a7640000600160601b61068b565b60008060008360020b12610370578260020b610378565b8260020b6000035b9050620d89e88111156103b6576040805162461bcd60e51b81526020600482015260016024820152601560fa1b604482015290519081900360640190fd5b6000600182166103ca57600160801b6103dc565b6ffffcb933bd6fad37aa2d162d1a5940015b70ffffffffffffffffffffffffffffffffff1690506002821615610410576ffff97272373d413259a46990580e213a0260801c5b600482161561042f576ffff2e50f5f656932ef12357cf3c7fdcc0260801c5b600882161561044e576fffe5caca7e10e4e61c3624eaa0941cd00260801c5b601082161561046d576fffcb9843d60f6159c9db58835c9266440260801c5b602082161561048c576fff973b41fa98c081472e6896dfb254c00260801c5b60408216156104ab576fff2ea16466c96a3843ec78b326b528610260801c5b60808216156104ca576ffe5dee046a99a2a811c461f1969c30530260801c5b6101008216156104ea576ffcbe86c7900a88aedcffc83b479aa3a40260801c5b61020082161561050a576ff987a7253ac413176f2b074cf7815e540260801c5b61040082161561052a576ff3392b0822b70005940c7a398e4b70f30260801c5b61080082161561054a576fe7159475a2c29b7443b29c7fa6e889d90260801c5b61100082161561056a576fd097f3bdfd2022b8845ad8f792aa58250260801c5b61200082161561058a576fa9f746462d870fdf8a65dc1f90e061e50260801c5b6140008216156105aa576f70d869a156d2a1b890bb3df62baf32f70260801c5b6180008216156105ca576f31be135f97d08fd981231505542fcfa60260801c5b620100008216156105eb576f09aa508b5b7a84e1c677de54f3e99bc90260801c5b6202000082161561060b576e5d6af8dedb81196699c329225ee6040260801c5b6204000082161561062a576d2216e584f5fa1ea926041bedfe980260801c5b62080000821615610647576b048a170391f7dc42444e8fa20260801c5b60008460020b131561066257806000198161065e57fe5b0490505b640100000000810615610676576001610679565b60005b60ff16602082901c0192505050919050565b60008080600019858709868602925082811090839003039050806106c157600084116106b657600080fd5b508290049050610734565b8084116106cd57600080fd5b6000848688096000868103871696879004966002600389028118808a02820302808a02820302808a02820302808a02820302808a02820302808a02909103029181900381900460010186841190950394909402919094039290920491909117919091029150505b9392505050565b600082601f83011261074b578081fd5b8151602061076061075b83610a32565b610a0e565b828152818101908583018385028701840188101561077c578586fd5b855b858110156107a15761078f826107ae565b8452928401929084019060010161077e565b5090979650505050505050565b80516001600160a01b03811681146100fc57600080fd5b805161ffff811681146100fc57600080fd5b600080604083850312156107e9578182fd5b825167ffffffffffffffff80821115610800578384fd5b818501915085601f830112610813578384fd5b8151602061082361075b83610a32565b82815281810190858301838502870184018b101561083f578889fd5b8896505b8487101561086f5780518060060b811461085b57898afd5b835260019690960195918301918301610843565b5091880151919650909350505080821115610888578283fd5b506108958582860161073b565b9150509250929050565b600080600080600080600060e0888a0312156108b9578283fd5b6108c2886107ae565b965060208801518060020b81146108d7578384fd5b95506108e5604089016107c5565b94506108f3606089016107c5565b9350610901608089016107c5565b925060a088015160ff81168114610916578283fd5b60c0890151909250801515811461092b578182fd5b8091505092959891949750929550565b60006020828403121561094c578081fd5b5035919050565b6001600160a01b0391909116815260200190565b6020808252825182820181905260009190848201906040850190845b818110156109a557835163ffffffff1683529284019291840191600101610983565b50909695505050505050565b60208082526026908201527f53616665436173743a2076616c756520646f65736e27742066697420696e203360408201526532206269747360d01b606082015260800190565b90815260200190565b60ff91909116815260200190565b60405181810167ffffffffffffffff81118282101715610a2a57fe5b604052919050565b600067ffffffffffffffff821115610a4657fe5b506020908102019056fea2646970667358221220438fcf186a12664bde7758216c719cba96efab811a3e22248c0035d1e7414bd764736f6c63430007060033",
  "linkReferences": {},
  "deployedLinkReferences": {}
}