{
  "_format": "hh-sol-artifact-1",
  "contractName": "TestPriceFeed",
  "sourceName": "contracts/test/TestPriceFeed.sol",
  "abi": [
    {
      "inputs": [
        {
          "internalType": "address",
          "name": "_chainlink",
          "type": "address"
        },
        {
          "internalType": "address",
          "name": "_bandProtocol",
          "type": "address"
        }
      ],
      "stateMutability": "nonpayable",
      "type": "constructor"
    },
    {
      "inputs": [],
      "name": "bandProtocol",
      "outputs": [
        {
          "internalType": "address",
          "name": "",
          "type": "address"
        }
      ],
      "stateMutability": "view",
      "type": "function"
    },
    {
      "inputs": [
        {
          "internalType": "uint256",
          "name": "interval",
          "type": "uint256"
        }
      ],
      "name": "cachedBandProtocolPrice",
      "outputs": [],
      "stateMutability": "nonpayable",
      "type": "function"
    },
    {
      "inputs": [
        {
          "internalType": "uint256",
          "name": "interval",
          "type": "uint256"
        }
      ],
      "name": "cachedChainlinkPrice",
      "outputs": [],
      "stateMutability": "nonpayable",
      "type": "function"
    },
    {
      "inputs": [],
      "name": "chainlink",
      "outputs": [
        {
          "internalType": "address",
          "name": "",
          "type": "address"
        }
      ],
      "stateMutability": "view",
      "type": "function"
    },
    {
      "inputs": [],
      "name": "currentPrice",
      "outputs": [
        {
          "internalType": "uint256",
          "name": "",
          "type": "uint256"
        }
      ],
      "stateMutability": "view",
      "type": "function"
    },
    {
      "inputs": [
        {
          "internalType": "uint256",
          "name": "interval",
          "type": "uint256"
        }
      ],
      "name": "fetchBandProtocolPrice",
      "outputs": [],
      "stateMutability": "nonpayable",
      "type": "function"
    },
    {
      "inputs": [
        {
          "internalType": "uint256",
          "name": "interval",
          "type": "uint256"
        }
      ],
      "name": "fetchChainlinkPrice",
      "outputs": [],
      "stateMutability": "nonpayable",
      "type": "function"
    },
    {
      "inputs": [
        {
          "internalType": "uint256",
          "name": "interval",
          "type": "uint256"
        }
      ],
      "name": "getPrice",
      "outputs": [
        {
          "internalType": "uint256",
          "name": "twap",
          "type": "uint256"
        },
        {
          "internalType": "uint256",
          "name": "cachedTwap",
          "type": "uint256"
        }
      ],
      "stateMutability": "nonpayable",
      "type": "function"
    }
  ],
  "bytecode": "0x608060405234801561001057600080fd5b5060405161070e38038061070e8339818101604052604081101561003357600080fd5b508051602090910151600080546001600160a01b039384166001600160a01b03199182161790915560018054939092169216919091179055600a60025561068f8061007f6000396000f3fe608060405234801561001057600080fd5b50600436106100885760003560e01c80639c3feeb71161005b5780639c3feeb71461010a5780639d1b464a14610112578063bd31d5861461012c578063e75722301461014957610088565b80630b2729c11461008d5780631b05d6d0146100ac5780633d9fe301146100c95780636fea6b1c146100e6575b600080fd5b6100aa600480360360208110156100a357600080fd5b503561017f565b005b6100aa600480360360208110156100c257600080fd5b503561028a565b6100aa600480360360208110156100df57600080fd5b503561037d565b6100ee61045a565b604080516001600160a01b039092168252519081900360200190f35b6100ee610469565b61011a610478565b60408051918252519081900360200190f35b6100aa6004803603602081101561014257600080fd5b503561047e565b6101666004803603602081101561015f57600080fd5b5035610557565b6040805192835260208301919091528051918290030190f35b60005b601181101561020b5760005460408051630e75722360e41b81526004810185905290516001600160a01b039092169163e757223091602480820192602092909190829003018186803b1580156101d757600080fd5b505afa1580156101eb573d6000803e3d6000fd5b505050506040513d602081101561020157600080fd5b5050600101610182565b5060005460408051630e75722360e41b81526004810184905290516001600160a01b039092169163e757223091602480820192602092909190829003018186803b15801561025857600080fd5b505afa15801561026c573d6000803e3d6000fd5b505050506040513d602081101561028257600080fd5b505160025550565b60005b6011811015610319576000805460408051630e8d088d60e11b81526004810186905290516001600160a01b0390921692631d1a111a926024808401936020939083900390910190829087803b1580156102e557600080fd5b505af11580156102f9573d6000803e3d6000fd5b505050506040513d602081101561030f57600080fd5b505060010161028d565b506000805460408051630e8d088d60e11b81526004810185905290516001600160a01b0390921692631d1a111a926024808401936020939083900390910190829087803b15801561036957600080fd5b505af115801561026c573d6000803e3d6000fd5b60005b601181101561040b5760015460408051630e8d088d60e11b81526004810185905290516001600160a01b0390921691631d1a111a916024808201926020929091908290030181600087803b1580156103d757600080fd5b505af11580156103eb573d6000803e3d6000fd5b505050506040513d602081101561040157600080fd5b5050600101610380565b5060015460408051630e8d088d60e11b81526004810184905290516001600160a01b0390921691631d1a111a916024808201926020929091908290030181600087803b15801561036957600080fd5b6001546001600160a01b031681565b6000546001600160a01b031681565b60025481565b60005b601181101561050a5760015460408051630e75722360e41b81526004810185905290516001600160a01b039092169163e757223091602480820192602092909190829003018186803b1580156104d657600080fd5b505afa1580156104ea573d6000803e3d6000fd5b505050506040513d602081101561050057600080fd5b5050600101610481565b5060015460408051630e75722360e41b81526004810184905290516001600160a01b039092169163e757223091602480820192602092909190829003018186803b15801561025857600080fd5b60015460408051630e75722360e41b815260048101849052905160009283926001600160a01b039091169163e757223091602480820192602092909190829003018186803b1580156105a857600080fd5b505afa1580156105bc573d6000803e3d6000fd5b505050506040513d60208110156105d257600080fd5b505160015460408051630e8d088d60e11b81526004810187905290519294506001600160a01b0390911691631d1a111a916024808201926020929091908290030181600087803b15801561062557600080fd5b505af1158015610639573d6000803e3d6000fd5b505050506040513d602081101561064f57600080fd5b505191939192505056fea2646970667358221220aec50ab960822f22004ef2ab8832a87e036012953b9d651119d100655828c07164736f6c63430007060033",
  "linkReferences": {},
  "deployedLinkReferences": {}
}